{
    "abi": [
        {
            "type": "constructor",
            "inputs": [
                {
                    "name": "_name",
                    "type": "string",
                    "internalType": "string"
                },
                {
                    "name": "_symbol",
                    "type": "string",
                    "internalType": "string"
                },
                {
                    "name": "_supply",
                    "type": "uint256",
                    "internalType": "uint256"
                },
                {
                    "name": "_endAuctionTime",
                    "type": "uint256",
                    "internalType": "uint256"
                }
            ],
            "stateMutability": "nonpayable"
        },
        {
            "type": "receive",
            "stateMutability": "payable"
        },
        {
            "type": "function",
            "name": "allowance",
            "inputs": [
                {
                    "name": "owner",
                    "type": "address",
                    "internalType": "address"
                },
                {
                    "name": "spender",
                    "type": "address",
                    "internalType": "address"
                }
            ],
            "outputs": [
                {
                    "name": "",
                    "type": "uint256",
                    "internalType": "uint256"
                }
            ],
            "stateMutability": "view"
        },
        {
            "type": "function",
            "name": "approve",
            "inputs": [
                {
                    "name": "spender",
                    "type": "address",
                    "internalType": "address"
                },
                {
                    "name": "value",
                    "type": "uint256",
                    "internalType": "uint256"
                }
            ],
            "outputs": [
                {
                    "name": "",
                    "type": "bool",
                    "internalType": "bool"
                }
            ],
            "stateMutability": "nonpayable"
        },
        {
            "type": "function",
            "name": "auctionAllocation",
            "inputs": [],
            "outputs": [
                {
                    "name": "",
                    "type": "uint256",
                    "internalType": "uint256"
                }
            ],
            "stateMutability": "view"
        },
        {
            "type": "function",
            "name": "auctionSettlePrice",
            "inputs": [],
            "outputs": [
                {
                    "name": "",
                    "type": "uint256",
                    "internalType": "uint256"
                }
            ],
            "stateMutability": "view"
        },
        {
            "type": "function",
            "name": "balanceOf",
            "inputs": [
                {
                    "name": "account",
                    "type": "address",
                    "internalType": "address"
                }
            ],
            "outputs": [
                {
                    "name": "",
                    "type": "uint256",
                    "internalType": "uint256"
                }
            ],
            "stateMutability": "view"
        },
        {
            "type": "function",
            "name": "bids",
            "inputs": [
                {
                    "name": "bidId",
                    "type": "uint256",
                    "internalType": "uint256"
                }
            ],
            "outputs": [
                {
                    "name": "",
                    "type": "tuple",
                    "internalType": "struct Bid",
                    "components": [
                        {
                            "name": "user",
                            "type": "address",
                            "internalType": "address"
                        },
                        {
                            "name": "creationTime",
                            "type": "uint256",
                            "internalType": "uint256"
                        },
                        {
                            "name": "eRequestedAmount",
                            "type": "uint256",
                            "internalType": "euint256"
                        },
                        {
                            "name": "ePricePerUnit",
                            "type": "uint256",
                            "internalType": "euint256"
                        },
                        {
                            "name": "dRequestedAmount",
                            "type": "uint256",
                            "internalType": "uint256"
                        },
                        {
                            "name": "dPricePerUnit",
                            "type": "uint256",
                            "internalType": "uint256"
                        },
                        {
                            "name": "confirmed",
                            "type": "bool",
                            "internalType": "bool"
                        },
                        {
                            "name": "totalValueLock",
                            "type": "uint256",
                            "internalType": "uint256"
                        },
                        {
                            "name": "totalAllocation",
                            "type": "uint256",
                            "internalType": "uint256"
                        }
                    ]
                }
            ],
            "stateMutability": "view"
        },
        {
            "type": "function",
            "name": "cancelBid",
            "inputs": [
                {
                    "name": "bidId",
                    "type": "uint256",
                    "internalType": "uint256"
                }
            ],
            "outputs": [],
            "stateMutability": "nonpayable"
        },
        {
            "type": "function",
            "name": "claimAllocation",
            "inputs": [
                {
                    "name": "bidId",
                    "type": "uint256",
                    "internalType": "uint256"
                }
            ],
            "outputs": [],
            "stateMutability": "nonpayable"
        },
        {
            "type": "function",
            "name": "claimETHToken",
            "inputs": [],
            "outputs": [],
            "stateMutability": "nonpayable"
        },
        {
            "type": "function",
            "name": "confirmBid",
            "inputs": [
                {
                    "name": "bidId",
                    "type": "uint256",
                    "internalType": "uint256"
                }
            ],
            "outputs": [],
            "stateMutability": "payable"
        },
        {
            "type": "function",
            "name": "decimals",
            "inputs": [],
            "outputs": [
                {
                    "name": "",
                    "type": "uint8",
                    "internalType": "uint8"
                }
            ],
            "stateMutability": "view"
        },
        {
            "type": "function",
            "name": "definedAllocation",
            "inputs": [
                {
                    "name": "numberToProceed",
                    "type": "uint256",
                    "internalType": "uint256"
                }
            ],
            "outputs": [],
            "stateMutability": "nonpayable"
        },
        {
            "type": "function",
            "name": "endAuctionTime",
            "inputs": [],
            "outputs": [
                {
                    "name": "",
                    "type": "uint256",
                    "internalType": "uint256"
                }
            ],
            "stateMutability": "view"
        },
        {
            "type": "function",
            "name": "ethClaimedAfterSell",
            "inputs": [],
            "outputs": [
                {
                    "name": "",
                    "type": "bool",
                    "internalType": "bool"
                }
            ],
            "stateMutability": "view"
        },
        {
            "type": "function",
            "name": "gatewayCallbackDecryptBid",
            "inputs": [
                {
                    "name": "requestId",
                    "type": "uint256",
                    "internalType": "uint256"
                },
                {
                    "name": "requestedAmount",
                    "type": "uint256",
                    "internalType": "uint256"
                },
                {
                    "name": "pricePerUnit",
                    "type": "uint256",
                    "internalType": "uint256"
                }
            ],
            "outputs": [],
            "stateMutability": "nonpayable"
        },
        {
            "type": "function",
            "name": "gatewaydecryptBidTotalValue",
            "inputs": [
                {
                    "name": "requestId",
                    "type": "uint256",
                    "internalType": "uint256"
                },
                {
                    "name": "result",
                    "type": "uint256",
                    "internalType": "uint256"
                }
            ],
            "outputs": [],
            "stateMutability": "nonpayable"
        },
        {
            "type": "function",
            "name": "lastBidProcessed",
            "inputs": [],
            "outputs": [
                {
                    "name": "",
                    "type": "uint256",
                    "internalType": "uint256"
                }
            ],
            "stateMutability": "view"
        },
        {
            "type": "function",
            "name": "name",
            "inputs": [],
            "outputs": [
                {
                    "name": "",
                    "type": "string",
                    "internalType": "string"
                }
            ],
            "stateMutability": "view"
        },
        {
            "type": "function",
            "name": "nextBidId",
            "inputs": [],
            "outputs": [
                {
                    "name": "",
                    "type": "uint256",
                    "internalType": "uint256"
                }
            ],
            "stateMutability": "view"
        },
        {
            "type": "function",
            "name": "owner",
            "inputs": [],
            "outputs": [
                {
                    "name": "",
                    "type": "address",
                    "internalType": "address"
                }
            ],
            "stateMutability": "view"
        },
        {
            "type": "function",
            "name": "refundBids",
            "inputs": [
                {
                    "name": "bidId",
                    "type": "uint256",
                    "internalType": "uint256"
                }
            ],
            "outputs": [],
            "stateMutability": "nonpayable"
        },
        {
            "type": "function",
            "name": "renounceOwnership",
            "inputs": [],
            "outputs": [],
            "stateMutability": "nonpayable"
        },
        {
            "type": "function",
            "name": "resolveAuction",
            "inputs": [
                {
                    "name": "numberToProcceed",
                    "type": "uint256",
                    "internalType": "uint256"
                }
            ],
            "outputs": [],
            "stateMutability": "nonpayable"
        },
        {
            "type": "function",
            "name": "submitEncryptedBid",
            "inputs": [
                {
                    "name": "eRequestedAmount",
                    "type": "bytes32",
                    "internalType": "einput"
                },
                {
                    "name": "ePricePerUnit",
                    "type": "bytes32",
                    "internalType": "einput"
                },
                {
                    "name": "inputProof",
                    "type": "bytes",
                    "internalType": "bytes"
                }
            ],
            "outputs": [
                {
                    "name": "",
                    "type": "uint256",
                    "internalType": "uint256"
                }
            ],
            "stateMutability": "nonpayable"
        },
        {
            "type": "function",
            "name": "symbol",
            "inputs": [],
            "outputs": [
                {
                    "name": "",
                    "type": "string",
                    "internalType": "string"
                }
            ],
            "stateMutability": "view"
        },
        {
            "type": "function",
            "name": "totalSupply",
            "inputs": [],
            "outputs": [
                {
                    "name": "",
                    "type": "uint256",
                    "internalType": "uint256"
                }
            ],
            "stateMutability": "view"
        },
        {
            "type": "function",
            "name": "transfer",
            "inputs": [
                {
                    "name": "to",
                    "type": "address",
                    "internalType": "address"
                },
                {
                    "name": "value",
                    "type": "uint256",
                    "internalType": "uint256"
                }
            ],
            "outputs": [
                {
                    "name": "",
                    "type": "bool",
                    "internalType": "bool"
                }
            ],
            "stateMutability": "nonpayable"
        },
        {
            "type": "function",
            "name": "transferFrom",
            "inputs": [
                {
                    "name": "from",
                    "type": "address",
                    "internalType": "address"
                },
                {
                    "name": "to",
                    "type": "address",
                    "internalType": "address"
                },
                {
                    "name": "value",
                    "type": "uint256",
                    "internalType": "uint256"
                }
            ],
            "outputs": [
                {
                    "name": "",
                    "type": "bool",
                    "internalType": "bool"
                }
            ],
            "stateMutability": "nonpayable"
        },
        {
            "type": "function",
            "name": "transferOwnership",
            "inputs": [
                {
                    "name": "newOwner",
                    "type": "address",
                    "internalType": "address"
                }
            ],
            "outputs": [],
            "stateMutability": "nonpayable"
        },
        {
            "type": "function",
            "name": "userBids",
            "inputs": [
                {
                    "name": "user",
                    "type": "address",
                    "internalType": "address"
                }
            ],
            "outputs": [
                {
                    "name": "",
                    "type": "uint256[]",
                    "internalType": "uint256[]"
                }
            ],
            "stateMutability": "view"
        },
        {
            "type": "event",
            "name": "Approval",
            "inputs": [
                {
                    "name": "owner",
                    "type": "address",
                    "indexed": true,
                    "internalType": "address"
                },
                {
                    "name": "spender",
                    "type": "address",
                    "indexed": true,
                    "internalType": "address"
                },
                {
                    "name": "value",
                    "type": "uint256",
                    "indexed": false,
                    "internalType": "uint256"
                }
            ],
            "anonymous": false
        },
        {
            "type": "event",
            "name": "AuctionAllocationTransferred",
            "inputs": [
                {
                    "name": "bidId",
                    "type": "uint256",
                    "indexed": true,
                    "internalType": "uint256"
                },
                {
                    "name": "bidder",
                    "type": "address",
                    "indexed": true,
                    "internalType": "address"
                },
                {
                    "name": "allocatedAmount",
                    "type": "uint256",
                    "indexed": false,
                    "internalType": "uint256"
                }
            ],
            "anonymous": false
        },
        {
            "type": "event",
            "name": "AuctionETHClaimed",
            "inputs": [
                {
                    "name": "owner",
                    "type": "address",
                    "indexed": true,
                    "internalType": "address"
                },
                {
                    "name": "ethAmount",
                    "type": "uint256",
                    "indexed": false,
                    "internalType": "uint256"
                }
            ],
            "anonymous": false
        },
        {
            "type": "event",
            "name": "AuctionFailed",
            "inputs": [
                {
                    "name": "auctionAllocation",
                    "type": "uint256",
                    "indexed": false,
                    "internalType": "uint256"
                },
                {
                    "name": "tokenSupply",
                    "type": "uint256",
                    "indexed": false,
                    "internalType": "uint256"
                }
            ],
            "anonymous": false
        },
        {
            "type": "event",
            "name": "BidAllocationSet",
            "inputs": [
                {
                    "name": "bidId",
                    "type": "uint256",
                    "indexed": true,
                    "internalType": "uint256"
                },
                {
                    "name": "recipient",
                    "type": "address",
                    "indexed": true,
                    "internalType": "address"
                },
                {
                    "name": "allocation",
                    "type": "uint256",
                    "indexed": false,
                    "internalType": "uint256"
                }
            ],
            "anonymous": false
        },
        {
            "type": "event",
            "name": "BidCanceled",
            "inputs": [
                {
                    "name": "bidder",
                    "type": "address",
                    "indexed": true,
                    "internalType": "address"
                },
                {
                    "name": "bidId",
                    "type": "uint256",
                    "indexed": true,
                    "internalType": "uint256"
                },
                {
                    "name": "refundAmount",
                    "type": "uint256",
                    "indexed": false,
                    "internalType": "uint256"
                }
            ],
            "anonymous": false
        },
        {
            "type": "event",
            "name": "BidConfirmed",
            "inputs": [
                {
                    "name": "bidder",
                    "type": "address",
                    "indexed": true,
                    "internalType": "address"
                },
                {
                    "name": "bidId",
                    "type": "uint256",
                    "indexed": true,
                    "internalType": "uint256"
                },
                {
                    "name": "amountLocked",
                    "type": "uint256",
                    "indexed": false,
                    "internalType": "uint256"
                }
            ],
            "anonymous": false
        },
        {
            "type": "event",
            "name": "BidRefunded",
            "inputs": [
                {
                    "name": "bidId",
                    "type": "uint256",
                    "indexed": true,
                    "internalType": "uint256"
                },
                {
                    "name": "bidder",
                    "type": "address",
                    "indexed": true,
                    "internalType": "address"
                },
                {
                    "name": "refundAmount",
                    "type": "uint256",
                    "indexed": false,
                    "internalType": "uint256"
                }
            ],
            "anonymous": false
        },
        {
            "type": "event",
            "name": "BidSubmitted",
            "inputs": [
                {
                    "name": "bidder",
                    "type": "address",
                    "indexed": true,
                    "internalType": "address"
                },
                {
                    "name": "bidId",
                    "type": "uint256",
                    "indexed": true,
                    "internalType": "uint256"
                }
            ],
            "anonymous": false
        },
        {
            "type": "event",
            "name": "GatewayDecryptBid",
            "inputs": [
                {
                    "name": "bidId",
                    "type": "uint256",
                    "indexed": true,
                    "internalType": "uint256"
                },
                {
                    "name": "requestedAmount",
                    "type": "uint256",
                    "indexed": false,
                    "internalType": "uint256"
                },
                {
                    "name": "pricePerUnit",
                    "type": "uint256",
                    "indexed": false,
                    "internalType": "uint256"
                }
            ],
            "anonymous": false
        },
        {
            "type": "event",
            "name": "GatewayTotalValueRequested",
            "inputs": [
                {
                    "name": "bidId",
                    "type": "uint256",
                    "indexed": true,
                    "internalType": "uint256"
                },
                {
                    "name": "amount",
                    "type": "uint256",
                    "indexed": false,
                    "internalType": "uint256"
                }
            ],
            "anonymous": false
        },
        {
            "type": "event",
            "name": "OwnershipTransferred",
            "inputs": [
                {
                    "name": "previousOwner",
                    "type": "address",
                    "indexed": true,
                    "internalType": "address"
                },
                {
                    "name": "newOwner",
                    "type": "address",
                    "indexed": true,
                    "internalType": "address"
                }
            ],
            "anonymous": false
        },
        {
            "type": "event",
            "name": "Transfer",
            "inputs": [
                {
                    "name": "from",
                    "type": "address",
                    "indexed": true,
                    "internalType": "address"
                },
                {
                    "name": "to",
                    "type": "address",
                    "indexed": true,
                    "internalType": "address"
                },
                {
                    "name": "value",
                    "type": "uint256",
                    "indexed": false,
                    "internalType": "uint256"
                }
            ],
            "anonymous": false
        },
        {
            "type": "error",
            "name": "AllBidsProcessed",
            "inputs": []
        },
        {
            "type": "error",
            "name": "AllocationNotClaimed",
            "inputs": [
                {
                    "name": "bidId",
                    "type": "uint256",
                    "internalType": "uint256"
                }
            ]
        },
        {
            "type": "error",
            "name": "AuctionAlreadyFinished",
            "inputs": []
        },
        {
            "type": "error",
            "name": "AuctionFailedError",
            "inputs": []
        },
        {
            "type": "error",
            "name": "AuctionNotFinished",
            "inputs": []
        },
        {
            "type": "error",
            "name": "BidAlreadyConfirmed",
            "inputs": [
                {
                    "name": "bidId",
                    "type": "uint256",
                    "internalType": "uint256"
                }
            ]
        },
        {
            "type": "error",
            "name": "BidNotConfirmed",
            "inputs": [
                {
                    "name": "bidId",
                    "type": "uint256",
                    "internalType": "uint256"
                }
            ]
        },
        {
            "type": "error",
            "name": "ERC20InsufficientAllowance",
            "inputs": [
                {
                    "name": "spender",
                    "type": "address",
                    "internalType": "address"
                },
                {
                    "name": "allowance",
                    "type": "uint256",
                    "internalType": "uint256"
                },
                {
                    "name": "needed",
                    "type": "uint256",
                    "internalType": "uint256"
                }
            ]
        },
        {
            "type": "error",
            "name": "ERC20InsufficientBalance",
            "inputs": [
                {
                    "name": "sender",
                    "type": "address",
                    "internalType": "address"
                },
                {
                    "name": "balance",
                    "type": "uint256",
                    "internalType": "uint256"
                },
                {
                    "name": "needed",
                    "type": "uint256",
                    "internalType": "uint256"
                }
            ]
        },
        {
            "type": "error",
            "name": "ERC20InvalidApprover",
            "inputs": [
                {
                    "name": "approver",
                    "type": "address",
                    "internalType": "address"
                }
            ]
        },
        {
            "type": "error",
            "name": "ERC20InvalidReceiver",
            "inputs": [
                {
                    "name": "receiver",
                    "type": "address",
                    "internalType": "address"
                }
            ]
        },
        {
            "type": "error",
            "name": "ERC20InvalidSender",
            "inputs": [
                {
                    "name": "sender",
                    "type": "address",
                    "internalType": "address"
                }
            ]
        },
        {
            "type": "error",
            "name": "ERC20InvalidSpender",
            "inputs": [
                {
                    "name": "spender",
                    "type": "address",
                    "internalType": "address"
                }
            ]
        },
        {
            "type": "error",
            "name": "ETHAlreadyClaimed",
            "inputs": []
        },
        {
            "type": "error",
            "name": "GatewayProcessRequired",
            "inputs": [
                {
                    "name": "bidId",
                    "type": "uint256",
                    "internalType": "uint256"
                },
                {
                    "name": "totalValueLock",
                    "type": "uint256",
                    "internalType": "uint256"
                }
            ]
        },
        {
            "type": "error",
            "name": "InsufficientFunds",
            "inputs": [
                {
                    "name": "user",
                    "type": "address",
                    "internalType": "address"
                },
                {
                    "name": "requiredAmount",
                    "type": "uint256",
                    "internalType": "uint256"
                },
                {
                    "name": "providedAmount",
                    "type": "uint256",
                    "internalType": "uint256"
                }
            ]
        },
        {
            "type": "error",
            "name": "InvalidBidId",
            "inputs": [
                {
                    "name": "providedBidId",
                    "type": "uint256",
                    "internalType": "uint256"
                },
                {
                    "name": "nextBidId",
                    "type": "uint256",
                    "internalType": "uint256"
                }
            ]
        },
        {
            "type": "error",
            "name": "InvalidEndAuctionTime",
            "inputs": [
                {
                    "name": "providedEndTime",
                    "type": "uint256",
                    "internalType": "uint256"
                },
                {
                    "name": "currentTime",
                    "type": "uint256",
                    "internalType": "uint256"
                }
            ]
        },
        {
            "type": "error",
            "name": "NoAllocation",
            "inputs": []
        },
        {
            "type": "error",
            "name": "NoTokensLocked",
            "inputs": []
        },
        {
            "type": "error",
            "name": "OwnableInvalidOwner",
            "inputs": [
                {
                    "name": "owner",
                    "type": "address",
                    "internalType": "address"
                }
            ]
        },
        {
            "type": "error",
            "name": "OwnableUnauthorizedAccount",
            "inputs": [
                {
                    "name": "account",
                    "type": "address",
                    "internalType": "address"
                }
            ]
        },
        {
            "type": "error",
            "name": "PendingBidsToProcess",
            "inputs": []
        },
        {
            "type": "error",
            "name": "PendingGatewayProcess",
            "inputs": []
        },
        {
            "type": "error",
            "name": "ReentrancyGuardReentrantCall",
            "inputs": []
        },
        {
            "type": "error",
            "name": "RemainingTokensToDistribute",
            "inputs": []
        },
        {
            "type": "error",
            "name": "UnauthorizedUser",
            "inputs": [
                {
                    "name": "providedUser",
                    "type": "address",
                    "internalType": "address"
                },
                {
                    "name": "expectedUser",
                    "type": "address",
                    "internalType": "address"
                }
            ]
        }
    ],
    "bytecode": {
        "object": "0x608060405234801561001057600080fd5b50604051613b23380380613b2383398101604081905261002f916104fa565b3384846101ad6100d1604080516080810182526000808252602082018190529181018290526060810191909152506040805160808101825273fee8407e2f5e3ee68ad77cae98c434e637f516e5815273687408ab54661ba0b4aef3a44156c616c6955e07602082015273fb03be574d14c256d56f09a198b586bdfc0a9de291810191909152739d6891a6240d6130c54ae243d8005063d05fe14b606082015290565b80517fed8d60e34876f751cc8b014c560745351147d9de11b9347c854e881b128ea60080546001600160a01b03199081166001600160a01b039384161790915560208301517fed8d60e34876f751cc8b014c560745351147d9de11b9347c854e881b128ea6018054831691841691909117905560408301517fed8d60e34876f751cc8b014c560745351147d9de11b9347c854e881b128ea6028054831691841691909117905560608301517fed8d60e34876f751cc8b014c560745351147d9de11b9347c854e881b128ea6038054909216921691909117905550565b7f93ab6e17f2c461cce6ea5d4ec117e51dda77a64affc2b2c05f8cd440def0e70080546001600160a01b0319167333347831500f1e73f0cccbb95c9f86b94d7b112317905560036101fe83826105fc565b50600461020b82826105fc565b5050506001600160a01b03811661023d57604051631e4fbdf760e01b8152600060048201526024015b60405180910390fd5b6102468161028b565b5060016010554281116102755760405163d4e3af8360e01b815260048101829052426024820152604401610234565b61027f30836102dd565b601255506106e1915050565b600580546001600160a01b038381166001600160a01b0319831681179093556040519116919082907f8be0079c531659141344cd1fd0a4f28419497f9722a3daafe3b4186f6b6457e090600090a35050565b6001600160a01b0382166103075760405163ec442f0560e01b815260006004820152602401610234565b61031360008383610317565b5050565b6001600160a01b03831661034257806002600082825461033791906106ba565b909155506103b49050565b6001600160a01b038316600090815260208190526040902054818110156103955760405163391434e360e21b81526001600160a01b03851660048201526024810182905260448101839052606401610234565b6001600160a01b03841660009081526020819052604090209082900390555b6001600160a01b0382166103d0576002805482900390556103ef565b6001600160a01b03821660009081526020819052604090208054820190555b816001600160a01b0316836001600160a01b03167fddf252ad1be2c89b69c2b068fc378daa952ba7f163c4a11628f55a4df523b3ef8360405161043491815260200190565b60405180910390a3505050565b634e487b7160e01b600052604160045260246000fd5b600082601f83011261046857600080fd5b81516001600160401b0381111561048157610481610441565b604051601f8201601f19908116603f011681016001600160401b03811182821017156104af576104af610441565b6040528181528382016020018510156104c757600080fd5b60005b828110156104e6576020818601810151838301820152016104ca565b506000918101602001919091529392505050565b6000806000806080858703121561051057600080fd5b84516001600160401b0381111561052657600080fd5b61053287828801610457565b602087015190955090506001600160401b0381111561055057600080fd5b61055c87828801610457565b604087015160609097015195989097509350505050565b600181811c9082168061058757607f821691505b6020821081036105a757634e487b7160e01b600052602260045260246000fd5b50919050565b601f8211156105f757806000526020600020601f840160051c810160208510156105d45750805b601f840160051c820191505b818110156105f457600081556001016105e0565b50505b505050565b81516001600160401b0381111561061557610615610441565b610629816106238454610573565b846105ad565b6020601f82116001811461065d57600083156106455750848201515b600019600385901b1c1916600184901b1784556105f4565b600084815260208120601f198516915b8281101561068d578785015182556020948501946001909201910161066d565b50848210156106ab5786840151600019600387901b60f8161c191681555b50505050600190811b01905550565b808201808211156106db57634e487b7160e01b600052601160045260246000fd5b92915050565b613433806106f06000396000f3fe6080604052600436106101d15760003560e01c806370a08231116100f757806395d89b4111610095578063dc26904911610064578063dc2690491461057b578063dd62ed3e14610591578063f2fde38b146105d7578063fb370feb146105f757600080fd5b806395d89b41146105065780639703ef351461051b578063a9059cbb1461053b578063aa03d4b61461055b57600080fd5b8063851212d9116100d1578063851212d91461047e5780638c488d30146104ab5780638da5cb5b146104be5780638f53116f146104e657600080fd5b806370a082311461041d578063715018a61461045357806381ec0f101461046857600080fd5b80632ba4ee561161016f5780633b20340a1161013e5780633b20340a146103305780634423c5f11461035057806345d0c755146103e75780635a4ed8f11461040757600080fd5b80632ba4ee56146102c8578063313ce567146102de578063391d8930146102fa57806339eb772e1461031057600080fd5b806318160ddd116101ab57806318160ddd14610252578063199de1e21461027157806323b872dd1461029357806327828189146102b357600080fd5b806306fdde03146101dd578063095ea7b3146102085780630bf0b38b1461023857600080fd5b366101d857005b600080fd5b3480156101e957600080fd5b506101f2610617565b6040516101ff9190613016565b60405180910390f35b34801561021457600080fd5b5061022861022336600461303e565b6106a9565b60405190151581526020016101ff565b34801561024457600080fd5b506017546102289060ff1681565b34801561025e57600080fd5b506002545b6040519081526020016101ff565b34801561027d57600080fd5b5061029161028c36600461306a565b6106c3565b005b34801561029f57600080fd5b506102286102ae366004613083565b610882565b3480156102bf57600080fd5b506102916108a6565b3480156102d457600080fd5b5061026360135481565b3480156102ea57600080fd5b50604051601281526020016101ff565b34801561030657600080fd5b5061026360155481565b34801561031c57600080fd5b5061029161032b3660046130c4565b610a47565b34801561033c57600080fd5b5061029161034b36600461306a565b610b02565b34801561035c57600080fd5b5061037061036b36600461306a565b610d70565b6040516101ff919060006101208201905060018060a01b0383511682526020830151602083015260408301516040830152606083015160608301526080830151608083015260a083015160a083015260c0830151151560c083015260e083015160e083015261010083015161010083015292915050565b3480156103f357600080fd5b5061029161040236600461306a565b610e51565b34801561041357600080fd5b5061026360125481565b34801561042957600080fd5b506102636104383660046130e6565b6001600160a01b031660009081526020819052604090205490565b34801561045f57600080fd5b5061029161104b565b34801561047457600080fd5b5061026360165481565b34801561048a57600080fd5b5061049e6104993660046130e6565b61105d565b6040516101ff919061313f565b6102916104b936600461306a565b6110c9565b3480156104ca57600080fd5b506005546040516001600160a01b0390911681526020016101ff565b3480156104f257600080fd5b50610291610501366004613152565b6112ef565b34801561051257600080fd5b506101f26113f3565b34801561052757600080fd5b5061029161053636600461306a565b611402565b34801561054757600080fd5b5061022861055636600461303e565b61156a565b34801561056757600080fd5b5061026361057636600461317e565b611578565b34801561058757600080fd5b5061026360115481565b34801561059d57600080fd5b506102636105ac366004613201565b6001600160a01b03918216600090815260016020908152604080832093909416825291909152205490565b3480156105e357600080fd5b506102916105f23660046130e6565b611808565b34801561060357600080fd5b5061029161061236600461306a565b611843565b6060600380546106269061323a565b80601f01602080910402602001604051908101604052809291908181526020018280546106529061323a565b801561069f5780601f106106745761010080835404028352916020019161069f565b820191906000526020600020905b81548152906001019060200180831161068257829003601f168201915b5050505050905090565b6000336106b7818585611b64565b60019150505b92915050565b60125442116106e557604051637f3ff6a160e01b815260040160405180910390fd5b6014541561070657604051634da20e9160e11b815260040160405180910390fd5b6011546013541061072a5760405163749b2aef60e01b815260040160405180910390fd5b60008111801561073d5750601154601354105b1561087f5760006001601354601154610756919061328a565b610760919061328a565b60008181526018602052604090206006015490915060ff16156108565760408051600280825260608201835260009260208301908036833701905050600083815260186020526040902060020154909150816000815181106107c4576107c461329d565b6020026020010181815250506107ed601860008481526020019081526020016000206003015490565b816001815181106108005761080061329d565b6020908102919091010152600061082c82638f53116f60e01b836108254260646132b3565b6000611b76565b60148054919250600061083e836132c6565b90915550506000908152601a60205260409020829055505b60138054906000610866836132c6565b91905055508180610876906132df565b9250505061072a565b50565b600033610890858285611c98565b61089b858585611d17565b506001949350505050565b6108ae611d76565b6108b6611da3565b60125442116108d857604051637f3ff6a160e01b815260040160405180910390fd5b60175460ff16156108fc576040516307084d6960e41b815260040160405180910390fd5b60155460000361091f576040516398db681f60e01b815260040160405180910390fd5b6002546016541015610944576040516356c3ee8960e11b815260040160405180910390fd5b6017805460ff19166001179055337f0b663242b49efd72eed7e791663a5b5ae92a8a449391f15ce6efa3e4ac04f06261097c60025490565b60155461098991906132f6565b60405190815260200160405180910390a26000336109a660025490565b6015546109b391906132f6565b604051600081818185875af1925050503d80600081146109ef576040519150601f19603f3d011682016040523d82523d6000602084013e6109f4565b606091505b5050905080610a3a5760405162461bcd60e51b815260206004820152600d60248201526c1499599d5b990819985a5b1959609a1b60448201526064015b60405180910390fd5b50610a456001601055565b565b7f93ab6e17f2c461cce6ea5d4ec117e51dda77a64affc2b2c05f8cd440def0e700546001600160a01b03163314610a7d57600080fd5b6000828152601a602081815260408084208054855260188352818520600701869055938690529181529154905183815290917fba08e5b60cfe3eaadff0d11d2106e8b7c5ffdcfc11649e37c54ae4f5f563b8a7910160405180910390a26000828152601a602052604081208190556014805491610af9836132df565b91905055505050565b610b0a611da3565b6012544211610b2c57604051637f3ff6a160e01b815260040160405180910390fd5b6000818152601860205260409020546001600160a01b03163314610b8557600081815260186020526040908190205490516370efdee760e11b81526001600160a01b039091166004820152336024820152604401610a31565b60008181526018602052604090206006015460ff16610bba576040516311cf94b960e21b815260048101829052602401610a31565b6000818152601860205260408120600701549003610beb576040516343b976c160e01b815260040160405180910390fd5b6000601554118015610c0d575060008181526018602052604090206008015415155b15610c2e576040516318ded70160e21b815260048101829052602401610a31565b601654600003610c51576040516356c3ee8960e11b815260040160405180910390fd5b6000601554118015610c665750600254601654105b15610c84576040516356c3ee8960e11b815260040160405180910390fd5b6000818152601860209081526040808320600701805493905551828152339184917fa59312996dc68b7f0224b341fed75d5afeb3bb20624107d37942d14f59428156910160405180910390a36000336001600160a01b0316826040515b60006040518083038185875af1925050503d8060008114610d1e576040519150601f19603f3d011682016040523d82523d6000602084013e610d23565b606091505b5050905080610d645760405162461bcd60e51b815260206004820152600d60248201526c1499599d5b990819985a5b1959609a1b6044820152606401610a31565b505061087f6001601055565b610dca60405180610120016040528060006001600160a01b03168152602001600081526020016000815260200160008152602001600081526020016000815260200160001515815260200160008152602001600081525090565b5060009081526018602090815260409182902082516101208101845281546001600160a01b031681526001820154928101929092526002810154928201929092526003820154606082015260048201546080820152600582015460a0820152600682015460ff16151560c0820152600782015460e082015260089091015461010082015290565b610e59611da3565b6012544211610e7b57604051637f3ff6a160e01b815260040160405180910390fd5b601554600003610e9e576040516398db681f60e01b815260040160405180910390fd5b6002546016541015610ec3576040516356c3ee8960e11b815260040160405180910390fd5b6000818152601860205260409020546001600160a01b03163314610f1c57600081815260186020526040908190205490516370efdee760e11b81526001600160a01b039091166004820152336024820152604401610a31565b60008181526018602052604090206006015460ff16610f51576040516311cf94b960e21b815260048101829052602401610a31565b6000818152601860205260408120600801549003610f8257604051632fc532ad60e11b815260040160405180910390fd5b60008181526018602052604081206008018054919055601554610fa590826132f6565b60008381526018602052604081206007018054909190610fc690849061328a565b90915550506000828152601860209081526040918290205491518381526001600160a01b039092169184917f25b63873793856095b134455279dd48e1363d2a7e72656984f76606ec6006297910160405180910390a36000828152601860205260409020546110409030906001600160a01b031683611d17565b5061087f6001601055565b611053611d76565b610a456000611dcd565b6001600160a01b0381166000908152601960209081526040918290208054835181840281018401909452808452606093928301828280156110bd57602002820191906000526020600020905b8154815260200190600101908083116110a9575b50505050509050919050565b60125442106110eb576040516346fb6e7f60e01b815260040160405180910390fd5b6110f3611da3565b601154811061112357601154604051634e5feaab60e11b8152610a31918391600401918252602082015260400190565b6000818152601860205260409020546001600160a01b0316331461117c57600081815260186020526040908190205490516370efdee760e11b81526001600160a01b039091166004820152336024820152604401610a31565b60008181526018602052604090206006015460ff16156111b257604051635d6ca17b60e01b815260048101829052602401610a31565b6000818152601860205260408120600701549003611201576000818152601860205260409081902060070154905163023299fb60e41b8152610a31918391600401918252602082015260400190565b6000818152601860205260409020600701543410156112565760008181526018602052604090819020600701549051632e2a182f60e11b81523360048201526024810191909152346044820152606401610a31565b6000818152601860205260409081902060068101805460ff19166001179055600701549051829133917fe0f71a4833a6e1522a2b7a9818671152c1b571b6440197bf5827952878d21873916112ae9190815260200190565b60405180910390a36000818152601860205260408120600701546112d2903461328a565b90508015611040576000336001600160a01b031682604051610ce1565b7f93ab6e17f2c461cce6ea5d4ec117e51dda77a64affc2b2c05f8cd440def0e700546001600160a01b0316331461132557600080fd5b6000838152601a60209081526040808320548084526018835281842060048101879055600501859055848452601b90925282205490910361136b5761136b601c83611e1f565b6000828152601b602090815260408220805460018101825590835290822001829055601480549161139b836132df565b90915550506000848152601a6020908152604080832092909255815185815290810184905282917f2e8574013eb683c88c54ca5c85d0d5f1bc8eb9917dab3b68ae6f442e07aa11fc910160405180910390a250505050565b6060600480546106269061323a565b6012544210611424576040516346fb6e7f60e01b815260040160405180910390fd5b61142c611da3565b601154811061145c57601154604051634e5feaab60e11b8152610a31918391600401918252602082015260400190565b6000818152601860205260409020546001600160a01b031633146114b557600081815260186020526040908190205490516370efdee760e11b81526001600160a01b039091166004820152336024820152604401610a31565b60008181526018602052604090206006015460ff166114ea576040516311cf94b960e21b815260048101829052602401610a31565b600081815260186020908152604091829020600781015460068201805460ff1916905590549251818152909284926001600160a01b03909116917fbd4eff3f366c1a32f47ae3e93fb0cb1b01e993405719bf74354347a484f56dbd910160405180910390a38015611040576000336001600160a01b031682604051610ce1565b6000336106b7818585611d17565b6000601254421061159c576040516346fb6e7f60e01b815260040160405180910390fd5b60006115de8685858080601f016020809104026020016040519081016040528093929190818152602001838380828437600092019190915250611f3292505050565b905060006116228686868080601f016020809104026020016040519081016040528093929190818152602001838380828437600092019190915250611f3292505050565b905061162d82611f47565b61163681611f47565b60006116428383611f51565b905061164d81611f47565b6040805160018082528183019092526000916020808301908036833701905050905081816000815181106116835761168361329d565b602090810291909101015260006116a882631cf5bb9760e11b836108254260646132b3565b6011546000828152601a602052604081209190915560148054929350906116ce836132c6565b90915550506040805161012081018252338082524260208084019182528385018a8152606085018a815260006080870181815260a0880182815260c0890183815260e08a018481526101008b0185815260118054875260188a528d87209c518d546001600160a01b0319166001600160a01b03909116178d5599516001808e0191909155975160028d0155955160038c0155925160048b0155905160058a01555160068901805460ff1916911515919091179055516007880155905160089096019590955583855260198252858520835481549283018255908652918520015554925190917f0862512267aa2317caa9475b7e771425e6b897509aade0be0d8fc6f5ce5fdd1891a3601180549060006117e6836132c6565b919050555060016011546117fa919061328a565b9a9950505050505050505050565b611810611d76565b6001600160a01b03811661183a57604051631e4fbdf760e01b815260006004820152602401610a31565b61087f81611dcd565b61184b611da3565b601254421161186d57604051637f3ff6a160e01b815260040160405180910390fd5b6014541561188e57604051634da20e9160e11b815260040160405180910390fd5b60115460135410156118b3576040516356c3ee8960e11b815260040160405180910390fd5b6000811180156118c65750600254601654105b80156118d35750601c5415155b15611a7d5760006118e4601c611f83565b601581905590505b60025460165410801561190c57506000818152601b602052604090205415155b15611a6c578160000361191f5750611b5a565b6000818152601b602052604081205461193a9060019061328a565b6000838152601b60205260408120805492935090918390811061195f5761195f61329d565b90600052602060002001549050601b600084815260200190815260200160002080548061198e5761198e61330d565b6001900381819060005260206000200160009055905560006119d66016546119b560025490565b6119bf919061328a565b600084815260186020526040902060040154611fc3565b6000838152601860205260408120600801829055601680549293508392909190611a019084906132b3565b90915550506000828152601860209081526040918290205491518381526001600160a01b039092169184917fce6182eff509d67072e4312861bb0de2b632ed7be5b7522596f26b5c65991ae1910160405180910390a384611a61816132df565b9550505050506118ec565b611a77601c82611fd3565b506118b3565b600081118015611a905750600254601654105b8015611a9c5750601c54155b15611b5a5760006015556016547f960b8f6fb0032af274e187030bca69877c3919bb3208d8d0ffdf417aac0bc59290611ad460025490565b6040805192835260208301919091520160405180910390a1611b5a30306001600160a01b0316638da5cb5b6040518163ffffffff1660e01b8152600401602060405180830381865afa158015611b2e573d6000803e3d6000fd5b505050506040513d601f19601f82011682018060405250810190611b529190613323565b600254611d17565b61087f6001601055565b611b7183838360016121ff565b505050565b6000805160206133de833981519152805460405163155f840160e21b8152600092916001600160a01b03169063557e100490611bb6908a9060040161313f565b600060405180830381600087803b158015611bd057600080fd5b505af1158015611be4573d6000803e3d6000fd5b505050506000611c117f93ab6e17f2c461cce6ea5d4ec117e51dda77a64affc2b2c05f8cd440def0e70090565b8054604051634c0d927760e01b81529192506001600160a01b031690634c0d927790611c49908b908b908b908b908b90600401613340565b6020604051808303816000875af1158015611c68573d6000803e3d6000fd5b505050506040513d601f19601f82011682018060405250810190611c8c9190613383565b98975050505050505050565b6001600160a01b03838116600090815260016020908152604080832093861683529290522054600019811015611d115781811015611d0257604051637dc7a0d960e11b81526001600160a01b03841660048201526024810182905260448101839052606401610a31565b611d11848484840360006121ff565b50505050565b6001600160a01b038316611d4157604051634b637e8f60e11b815260006004820152602401610a31565b6001600160a01b038216611d6b5760405163ec442f0560e01b815260006004820152602401610a31565b611b718383836122d4565b6005546001600160a01b03163314610a455760405163118cdaa760e01b8152336004820152602401610a31565b600260105403611dc657604051633ee5aeb560e01b815260040160405180910390fd5b6002601055565b600580546001600160a01b038381166001600160a01b0319831681179093556040519116919082907f8be0079c531659141344cd1fd0a4f28419497f9722a3daafe3b4186f6b6457e090600090a35050565b80611e2957600080fd5b611e3382826123fe565b15611e3d57600080fd5b81546000905b8015611e865780915080831015611e6d576000908152600180850160205260409091200154611e43565b6000908152600184016020526040902060020154611e43565b60408051608081018252838152600060208083018281528385018381526001606086018181528a86528b82019094529590932093518455519383019390935551600282015590516003909101805460ff191691151591909117905581611eee57828455611f28565b81831015611f115760008281526001808601602052604090912001839055611f28565b600082815260018501602052604090206002018390555b611d11848461242d565b6000611f4083836008612695565b9392505050565b61087f81306127b0565b600082611f6557611f62600061282d565b92505b81611f7757611f74600061282d565b91505b611f408383600061283a565b80548015611fbe575b600081815260018301602052604090206002015415611fbe576000908152600182016020526040902060020154611f8c565b919050565b6000828218828410028218611f40565b80611fdd57600080fd5b611fe782826123fe565b611ff057600080fd5b600081815260018084016020526040822001548190158061202257506000838152600185016020526040902060020154155b1561202e575081612076565b5060008281526001840160205260409020600201545b600081815260018086016020526040909120015415612076576000908152600180850160205260409091200154612044565b6000818152600180860160205260409091200154156120aa57600081815260018086016020526040909120015491506120c1565b600081815260018501602052604090206002015491505b6000818152600185016020526040808220548483529120819055801561213157600081815260018087016020526040909120015482036121165760008181526001808701602052604090912001839055612135565b60008181526001860160205260409020600201839055612135565b8285555b600082815260018601602052604090206003015460ff16158483146121bf5761215f8684876128f6565b60008581526001878101602052604080832080830154878552828520938401819055845281842087905560028082015490840181905584529083208690556003908101549286905201805460ff191660ff90921615159190911790559193915b80156121cf576121cf868561296c565b5050600090815260019384016020526040812081815593840181905560028401555050600301805460ff19169055565b6001600160a01b0384166122295760405163e602df0560e01b815260006004820152602401610a31565b6001600160a01b03831661225357604051634a1406b160e11b815260006004820152602401610a31565b6001600160a01b0380851660009081526001602090815260408083209387168352929052208290558015611d1157826001600160a01b0316846001600160a01b03167f8c5be1e5ebec7d5bd14f71427d1e84f3dd0314c0f7b2291e5b200ac8c7c3b925846040516122c691815260200190565b60405180910390a350505050565b6001600160a01b0383166122ff5780600260008282546122f491906132b3565b909155506123719050565b6001600160a01b038316600090815260208190526040902054818110156123525760405163391434e360e21b81526001600160a01b03851660048201526024810182905260448101839052606401610a31565b6001600160a01b03841660009081526020819052604090209082900390555b6001600160a01b03821661238d576002805482900390556123ac565b6001600160a01b03821660009081526020819052604090208054820190555b816001600160a01b0316836001600160a01b03167fddf252ad1be2c89b69c2b068fc378daa952ba7f163c4a11628f55a4df523b3ef836040516123f191815260200190565b60405180910390a3505050565b60008115801590611f4057508254821480611f4057505060009081526001919091016020526040902054151590565b60005b8254821480159061245a5750600082815260018401602052604080822054825290206003015460ff165b15612673576000828152600180850160205260408083205480845281842054845292200154810361257b5760008181526001850160205260408082205482528082206002015480835291206003015490925060ff1615612502576000818152600180860160205260408083206003808201805460ff1990811690915587865283862082018054821690558254865292852001805490921690921790559082905254925061266d565b60008181526001850160205260409020600201548303612529578092506125298484612d85565b50600082815260018085016020526040808320548084528184206003808201805460ff19908116909155825487529386200180549093169093179091559182905254612576908590612e5c565b61266d565b6000818152600180860160205260408083205483528083209091015480835291206003015490925060ff16156125f9576000818152600180860160205260408083206003808201805460ff1990811690915587865283862082018054821690558254865292852001805490921690921790559082905254925061266d565b60008181526001808601602052604090912001548303612620578092506126208484612e5c565b50600082815260018085016020526040808320548084528184206003808201805460ff1990811690915582548752938620018054909316909317909155918290525461266d908590612d85565b50612430565b505080546000908152600190910160205260409020600301805460ff19169055565b7fed8d60e34876f751cc8b014c560745351147d9de11b9347c854e881b128ea601546040516302e817ff60e41b81526000916000805160206133de833981519152916001600160a01b0390911690632e817ff0906127019088903390899060f88a901b9060040161339c565b6020604051808303816000875af1158015612720573d6000803e3d6000fd5b505050506040513d601f19601f820116820180604052508101906127449190613383565b81546040516346ce4e4960e11b8152600481018390523360248201529193506001600160a01b031690638d9c9c9290604401600060405180830381600087803b15801561279057600080fd5b505af11580156127a4573d6000803e3d6000fd5b50505050509392505050565b60006000805160206133de8339815191528054604051631974142760e21b8152600481018690526001600160a01b0385811660248301529293509116906365d0509c90604401600060405180830381600087803b15801561281057600080fd5b505af1158015612824573d6000803e3d6000fd5b50505050505050565b60006106bd826008612f30565b600080821561284e5750600160f81b612852565b5060005b60006000805160206133de833981519152600181015460405163816d57d360e01b815260048101899052602481018890526001600160f81b0319851660448201529192506001600160a01b03169063816d57d3906064016020604051808303816000875af11580156128c8573d6000803e3d6000fd5b505050506040513d601f19601f820116820180604052508101906128ec9190613383565b9695505050505050565b60008181526001840160205260408082205484835291208190558061291d57828455611d11565b600081815260018086016020526040909120015482036129525760008181526001808601602052604090912001839055611d11565b600090815260019390930160205250604090912060020155565b60005b825482148015906129945750600082815260018401602052604090206003015460ff16155b15612d665760008281526001808501602052604080832054808452922001548303612b8f5760008181526001850160205260408082206002015480835291206003015490925060ff1615612a37576000828152600180860160205260408083206003908101805460ff19908116909155858552919093209092018054909216179055612a208482612d85565b600081815260018501602052604090206002015491505b60008281526001808601602052604080832090910154825290206003015460ff16158015612a825750600082815260018501602052604080822060020154825290206003015460ff16155b15612aaf57600082815260018581016020526040909120600301805460ff19169091179055915081612d60565b600082815260018501602052604080822060020154825290206003015460ff16612b2c576000828152600180860160205260408083208083015484529083206003908101805460ff1990811690915593869052018054909216179055612b158483612e5c565b600081815260018501602052604090206002015491505b600081815260018501602052604080822060039081018054868552838520808401805460ff909316151560ff199384161790558254821690925560029091015484529190922090910180549091169055612b868482612d85565b83549250612d60565b6000818152600180860160205260408083209091015480835291206003015490925060ff1615612c0e576000828152600180860160205260408083206003908101805460ff19908116909155858552919093209092018054909216179055612bf78482612e5c565b600081815260018086016020526040909120015491505b600082815260018501602052604080822060020154825290206003015460ff16158015612c59575060008281526001808601602052604080832090910154825290206003015460ff16155b15612c8657600082815260018581016020526040909120600301805460ff19169091179055915081612d60565b60008281526001808601602052604080832090910154825290206003015460ff16612d0557600082815260018086016020526040808320600281015484529083206003908101805460ff1990811690915593869052018054909216179055612cee8483612d85565b600081815260018086016020526040909120015491505b60008181526001808601602052604080832060039081018054878652838620808401805460ff909316151560ff19938416179055825482169092559301548452922090910180549091169055612d5b8482612e5c565b835492505b5061296f565b506000908152600190910160205260409020600301805460ff19169055565b600081815260018084016020526040808320600281018054915482865292852090930154938590529183905590918015612dcd57600081815260018601602052604090208490555b6000838152600186016020526040902082905581612ded57828555612e39565b60008281526001808701602052604090912001548403612e225760008281526001808701602052604090912001839055612e39565b600082815260018601602052604090206002018390555b505060008181526001938401602052604080822090940183905591825291902055565b60008181526001808401602052604080832091820180549254838552918420600201549385905283905590918015612ea257600081815260018601602052604090208490555b6000838152600186016020526040902082905581612ec257828555612f0e565b60008281526001860160205260409020600201548403612ef75760008281526001860160205260409020600201839055612f0e565b600082815260018087016020526040909120018390555b5050600081815260019093016020526040808420600201839055918352912055565b6000806000805160206133de8339815191526001810154604051631ce2e8d760e31b8152600481018790526001600160f81b031960f887901b1660248201529192506001600160a01b03169063e71746b8906044016020604051808303816000875af1158015612fa4573d6000803e3d6000fd5b505050506040513d601f19601f82011682018060405250810190612fc89190613383565b949350505050565b6000815180845260005b81811015612ff657602081850181015186830182015201612fda565b506000602082860101526020601f19601f83011685010191505092915050565b602081526000611f406020830184612fd0565b6001600160a01b038116811461087f57600080fd5b6000806040838503121561305157600080fd5b823561305c81613029565b946020939093013593505050565b60006020828403121561307c57600080fd5b5035919050565b60008060006060848603121561309857600080fd5b83356130a381613029565b925060208401356130b381613029565b929592945050506040919091013590565b600080604083850312156130d757600080fd5b50508035926020909101359150565b6000602082840312156130f857600080fd5b8135611f4081613029565b600081518084526020840193506020830160005b82811015613135578151865260209586019590910190600101613117565b5093949350505050565b602081526000611f406020830184613103565b60008060006060848603121561316757600080fd5b505081359360208301359350604090920135919050565b6000806000806060858703121561319457600080fd5b8435935060208501359250604085013567ffffffffffffffff8111156131b957600080fd5b8501601f810187136131ca57600080fd5b803567ffffffffffffffff8111156131e157600080fd5b8760208284010111156131f357600080fd5b949793965060200194505050565b6000806040838503121561321457600080fd5b823561321f81613029565b9150602083013561322f81613029565b809150509250929050565b600181811c9082168061324e57607f821691505b60208210810361326e57634e487b7160e01b600052602260045260246000fd5b50919050565b634e487b7160e01b600052601160045260246000fd5b818103818111156106bd576106bd613274565b634e487b7160e01b600052603260045260246000fd5b808201808211156106bd576106bd613274565b6000600182016132d8576132d8613274565b5060010190565b6000816132ee576132ee613274565b506000190190565b80820281158282048414176106bd576106bd613274565b634e487b7160e01b600052603160045260246000fd5b60006020828403121561333557600080fd5b8151611f4081613029565b60a08152600061335360a0830188613103565b6001600160e01b031996909616602083015250604081019390935260608301919091521515608090910152919050565b60006020828403121561339557600080fd5b5051919050565b8481526001600160a01b03841660208201526080604082018190526000906133c690830185612fd0565b905060ff60f81b831660608301529594505050505056feed8d60e34876f751cc8b014c560745351147d9de11b9347c854e881b128ea600a2646970667358221220d1dde56ca8a5962685739b9bda380b4340ae06ce74029ca36ebf3debf927103864736f6c634300081a0033",
        "linkReferences": {}
    },
    "methodIdentifiers": {
        "allowance(address,address)": "dd62ed3e",
        "approve(address,uint256)": "095ea7b3",
        "auctionAllocation()": "81ec0f10",
        "auctionSettlePrice()": "391d8930",
        "balanceOf(address)": "70a08231",
        "bids(uint256)": "4423c5f1",
        "cancelBid(uint256)": "9703ef35",
        "claimAllocation(uint256)": "45d0c755",
        "claimETHToken()": "27828189",
        "confirmBid(uint256)": "8c488d30",
        "decimals()": "313ce567",
        "definedAllocation(uint256)": "fb370feb",
        "endAuctionTime()": "5a4ed8f1",
        "ethClaimedAfterSell()": "0bf0b38b",
        "gatewayCallbackDecryptBid(uint256,uint256,uint256)": "8f53116f",
        "gatewaydecryptBidTotalValue(uint256,uint256)": "39eb772e",
        "lastBidProcessed()": "2ba4ee56",
        "name()": "06fdde03",
        "nextBidId()": "dc269049",
        "owner()": "8da5cb5b",
        "refundBids(uint256)": "3b20340a",
        "renounceOwnership()": "715018a6",
        "resolveAuction(uint256)": "199de1e2",
        "submitEncryptedBid(bytes32,bytes32,bytes)": "aa03d4b6",
        "symbol()": "95d89b41",
        "totalSupply()": "18160ddd",
        "transfer(address,uint256)": "a9059cbb",
        "transferFrom(address,address,uint256)": "23b872dd",
        "transferOwnership(address)": "f2fde38b",
        "userBids(address)": "851212d9"
    },
    "id": 36
}