{
  "_format": "hh-sol-artifact-1",
  "contractName": "PrivateAuction",
  "sourceName": "src/PrivateAuction.sol",
  "abi": [
    {
      "inputs": [
        {
          "internalType": "string",
          "name": "_name",
          "type": "string"
        },
        {
          "internalType": "string",
          "name": "_symbol",
          "type": "string"
        },
        {
          "internalType": "uint256",
          "name": "_supply",
          "type": "uint256"
        },
        {
          "internalType": "uint256",
          "name": "_endAuctionTime",
          "type": "uint256"
        }
      ],
      "stateMutability": "nonpayable",
      "type": "constructor"
    },
    {
      "inputs": [
        {
          "internalType": "address",
          "name": "spender",
          "type": "address"
        },
        {
          "internalType": "uint256",
          "name": "allowance",
          "type": "uint256"
        },
        {
          "internalType": "uint256",
          "name": "needed",
          "type": "uint256"
        }
      ],
      "name": "ERC20InsufficientAllowance",
      "type": "error"
    },
    {
      "inputs": [
        {
          "internalType": "address",
          "name": "sender",
          "type": "address"
        },
        {
          "internalType": "uint256",
          "name": "balance",
          "type": "uint256"
        },
        {
          "internalType": "uint256",
          "name": "needed",
          "type": "uint256"
        }
      ],
      "name": "ERC20InsufficientBalance",
      "type": "error"
    },
    {
      "inputs": [
        {
          "internalType": "address",
          "name": "approver",
          "type": "address"
        }
      ],
      "name": "ERC20InvalidApprover",
      "type": "error"
    },
    {
      "inputs": [
        {
          "internalType": "address",
          "name": "receiver",
          "type": "address"
        }
      ],
      "name": "ERC20InvalidReceiver",
      "type": "error"
    },
    {
      "inputs": [
        {
          "internalType": "address",
          "name": "sender",
          "type": "address"
        }
      ],
      "name": "ERC20InvalidSender",
      "type": "error"
    },
    {
      "inputs": [
        {
          "internalType": "address",
          "name": "spender",
          "type": "address"
        }
      ],
      "name": "ERC20InvalidSpender",
      "type": "error"
    },
    {
      "inputs": [],
      "name": "FinishedAuctionError",
      "type": "error"
    },
    {
      "inputs": [
        {
          "internalType": "address",
          "name": "owner",
          "type": "address"
        }
      ],
      "name": "OwnableInvalidOwner",
      "type": "error"
    },
    {
      "inputs": [
        {
          "internalType": "address",
          "name": "account",
          "type": "address"
        }
      ],
      "name": "OwnableUnauthorizedAccount",
      "type": "error"
    },
    {
      "inputs": [],
      "name": "ReentrancyGuardReentrantCall",
      "type": "error"
    },
    {
      "anonymous": false,
      "inputs": [
        {
          "indexed": true,
          "internalType": "address",
          "name": "owner",
          "type": "address"
        },
        {
          "indexed": true,
          "internalType": "address",
          "name": "spender",
          "type": "address"
        },
        {
          "indexed": false,
          "internalType": "uint256",
          "name": "value",
          "type": "uint256"
        }
      ],
      "name": "Approval",
      "type": "event"
    },
    {
      "anonymous": false,
      "inputs": [
        {
          "indexed": true,
          "internalType": "address",
          "name": "previousOwner",
          "type": "address"
        },
        {
          "indexed": true,
          "internalType": "address",
          "name": "newOwner",
          "type": "address"
        }
      ],
      "name": "OwnershipTransferred",
      "type": "event"
    },
    {
      "anonymous": false,
      "inputs": [
        {
          "indexed": true,
          "internalType": "address",
          "name": "from",
          "type": "address"
        },
        {
          "indexed": true,
          "internalType": "address",
          "name": "to",
          "type": "address"
        },
        {
          "indexed": false,
          "internalType": "uint256",
          "name": "value",
          "type": "uint256"
        }
      ],
      "name": "Transfer",
      "type": "event"
    },
    {
      "inputs": [
        {
          "internalType": "address",
          "name": "owner",
          "type": "address"
        },
        {
          "internalType": "address",
          "name": "spender",
          "type": "address"
        }
      ],
      "name": "allowance",
      "outputs": [
        {
          "internalType": "uint256",
          "name": "",
          "type": "uint256"
        }
      ],
      "stateMutability": "view",
      "type": "function"
    },
    {
      "inputs": [
        {
          "internalType": "address",
          "name": "spender",
          "type": "address"
        },
        {
          "internalType": "uint256",
          "name": "value",
          "type": "uint256"
        }
      ],
      "name": "approve",
      "outputs": [
        {
          "internalType": "bool",
          "name": "",
          "type": "bool"
        }
      ],
      "stateMutability": "nonpayable",
      "type": "function"
    },
    {
      "inputs": [
        {
          "internalType": "uint256",
          "name": "auctionId",
          "type": "uint256"
        }
      ],
      "name": "auctions",
      "outputs": [
        {
          "internalType": "address",
          "name": "user",
          "type": "address"
        },
        {
          "internalType": "uint256",
          "name": "creationTime",
          "type": "uint256"
        },
        {
          "internalType": "euint256",
          "name": "eRequestedAmount",
          "type": "uint256"
        },
        {
          "internalType": "euint256",
          "name": "ePricePerUnit",
          "type": "uint256"
        },
        {
          "internalType": "uint256",
          "name": "dRequestedAmount",
          "type": "uint256"
        },
        {
          "internalType": "uint256",
          "name": "dPricePerUnit",
          "type": "uint256"
        },
        {
          "internalType": "bool",
          "name": "validated",
          "type": "bool"
        },
        {
          "internalType": "uint256",
          "name": "totalValueLock",
          "type": "uint256"
        }
      ],
      "stateMutability": "view",
      "type": "function"
    },
    {
      "inputs": [
        {
          "internalType": "address",
          "name": "account",
          "type": "address"
        }
      ],
      "name": "balanceOf",
      "outputs": [
        {
          "internalType": "uint256",
          "name": "",
          "type": "uint256"
        }
      ],
      "stateMutability": "view",
      "type": "function"
    },
    {
      "inputs": [
        {
          "internalType": "uint256",
          "name": "auctionId",
          "type": "uint256"
        }
      ],
      "name": "cancelAuction",
      "outputs": [],
      "stateMutability": "nonpayable",
      "type": "function"
    },
    {
      "inputs": [
        {
          "internalType": "uint256",
          "name": "auctionId",
          "type": "uint256"
        }
      ],
      "name": "confirmAuction",
      "outputs": [],
      "stateMutability": "payable",
      "type": "function"
    },
    {
      "inputs": [
        {
          "internalType": "einput",
          "name": "eRequestedAmount",
          "type": "bytes32"
        },
        {
          "internalType": "einput",
          "name": "ePricePerUnit",
          "type": "bytes32"
        },
        {
          "internalType": "bytes",
          "name": "eRequestedAmountProof",
          "type": "bytes"
        },
        {
          "internalType": "bytes",
          "name": "ePricePerUnitProof",
          "type": "bytes"
        }
      ],
      "name": "createAuction",
      "outputs": [
        {
          "internalType": "uint256",
          "name": "",
          "type": "uint256"
        }
      ],
      "stateMutability": "nonpayable",
      "type": "function"
    },
    {
      "inputs": [],
      "name": "decimals",
      "outputs": [
        {
          "internalType": "uint8",
          "name": "",
          "type": "uint8"
        }
      ],
      "stateMutability": "view",
      "type": "function"
    },
    {
      "inputs": [
        {
          "internalType": "uint256",
          "name": "requestId",
          "type": "uint256"
        }
      ],
      "name": "decypherProcess",
      "outputs": [
        {
          "internalType": "uint256",
          "name": "auctionId",
          "type": "uint256"
        }
      ],
      "stateMutability": "view",
      "type": "function"
    },
    {
      "inputs": [
        {
          "internalType": "uint256",
          "name": "numberToProceed",
          "type": "uint256"
        }
      ],
      "name": "distributeToken",
      "outputs": [],
      "stateMutability": "nonpayable",
      "type": "function"
    },
    {
      "inputs": [],
      "name": "endAuctionTime",
      "outputs": [
        {
          "internalType": "uint256",
          "name": "",
          "type": "uint256"
        }
      ],
      "stateMutability": "view",
      "type": "function"
    },
    {
      "inputs": [
        {
          "internalType": "uint256",
          "name": "requestId",
          "type": "uint256"
        },
        {
          "internalType": "uint256",
          "name": "requestedAmount",
          "type": "uint256"
        },
        {
          "internalType": "uint256",
          "name": "pricePerUnit",
          "type": "uint256"
        }
      ],
      "name": "gateway_callback_decypher_auction",
      "outputs": [],
      "stateMutability": "nonpayable",
      "type": "function"
    },
    {
      "inputs": [
        {
          "internalType": "uint256",
          "name": "requestId",
          "type": "uint256"
        },
        {
          "internalType": "uint256",
          "name": "result",
          "type": "uint256"
        }
      ],
      "name": "gateway_decypher_total_value",
      "outputs": [],
      "stateMutability": "nonpayable",
      "type": "function"
    },
    {
      "inputs": [],
      "name": "lastAuctionId",
      "outputs": [
        {
          "internalType": "uint256",
          "name": "",
          "type": "uint256"
        }
      ],
      "stateMutability": "view",
      "type": "function"
    },
    {
      "inputs": [],
      "name": "lastAuctionProccessed",
      "outputs": [
        {
          "internalType": "uint256",
          "name": "",
          "type": "uint256"
        }
      ],
      "stateMutability": "view",
      "type": "function"
    },
    {
      "inputs": [],
      "name": "name",
      "outputs": [
        {
          "internalType": "string",
          "name": "",
          "type": "string"
        }
      ],
      "stateMutability": "view",
      "type": "function"
    },
    {
      "inputs": [],
      "name": "owner",
      "outputs": [
        {
          "internalType": "address",
          "name": "",
          "type": "address"
        }
      ],
      "stateMutability": "view",
      "type": "function"
    },
    {
      "inputs": [],
      "name": "renounceOwnership",
      "outputs": [],
      "stateMutability": "nonpayable",
      "type": "function"
    },
    {
      "inputs": [
        {
          "internalType": "uint256",
          "name": "numberToProcceed",
          "type": "uint256"
        }
      ],
      "name": "resolveAuction",
      "outputs": [],
      "stateMutability": "nonpayable",
      "type": "function"
    },
    {
      "inputs": [],
      "name": "symbol",
      "outputs": [
        {
          "internalType": "string",
          "name": "",
          "type": "string"
        }
      ],
      "stateMutability": "view",
      "type": "function"
    },
    {
      "inputs": [],
      "name": "totalSupply",
      "outputs": [
        {
          "internalType": "uint256",
          "name": "",
          "type": "uint256"
        }
      ],
      "stateMutability": "view",
      "type": "function"
    },
    {
      "inputs": [
        {
          "internalType": "address",
          "name": "to",
          "type": "address"
        },
        {
          "internalType": "uint256",
          "name": "value",
          "type": "uint256"
        }
      ],
      "name": "transfer",
      "outputs": [
        {
          "internalType": "bool",
          "name": "",
          "type": "bool"
        }
      ],
      "stateMutability": "nonpayable",
      "type": "function"
    },
    {
      "inputs": [
        {
          "internalType": "address",
          "name": "from",
          "type": "address"
        },
        {
          "internalType": "address",
          "name": "to",
          "type": "address"
        },
        {
          "internalType": "uint256",
          "name": "value",
          "type": "uint256"
        }
      ],
      "name": "transferFrom",
      "outputs": [
        {
          "internalType": "bool",
          "name": "",
          "type": "bool"
        }
      ],
      "stateMutability": "nonpayable",
      "type": "function"
    },
    {
      "inputs": [
        {
          "internalType": "address",
          "name": "newOwner",
          "type": "address"
        }
      ],
      "name": "transferOwnership",
      "outputs": [],
      "stateMutability": "nonpayable",
      "type": "function"
    },
    {
      "inputs": [
        {
          "internalType": "uint256",
          "name": "auctionId",
          "type": "uint256"
        }
      ],
      "name": "unlock",
      "outputs": [],
      "stateMutability": "nonpayable",
      "type": "function"
    }
  ],
  "bytecode": "0x608060405234801562000010575f80fd5b5060405162003335380380620033358339810160408190526200003391620004f9565b338484620001b2620000d6604080516080810182525f808252602082018190529181018290526060810191909152506040805160808101825273fee8407e2f5e3ee68ad77cae98c434e637f516e5815273687408ab54661ba0b4aef3a44156c616c6955e07602082015273fb03be574d14c256d56f09a198b586bdfc0a9de291810191909152739d6891a6240d6130c54ae243d8005063d05fe14b606082015290565b80517fed8d60e34876f751cc8b014c560745351147d9de11b9347c854e881b128ea60080546001600160a01b03199081166001600160a01b039384161790915560208301517fed8d60e34876f751cc8b014c560745351147d9de11b9347c854e881b128ea6018054831691841691909117905560408301517fed8d60e34876f751cc8b014c560745351147d9de11b9347c854e881b128ea6028054831691841691909117905560608301517fed8d60e34876f751cc8b014c560745351147d9de11b9347c854e881b128ea6038054909216921691909117905550565b6003620001c08382620005f8565b506004620001cf8282620005f8565b5050506001600160a01b0381166200020157604051631e4fbdf760e01b81525f60048201526024015b60405180910390fd5b6200020c816200027c565b506001601055428111620002635760405162461bcd60e51b815260206004820152601860248201527f494e56414c49445f454e445f41554354494f4e5f54494d4500000000000000006044820152606401620001f8565b6200026f3083620002cd565b60145550620006ea915050565b600580546001600160a01b038381166001600160a01b0319831681179093556040519116919082907f8be0079c531659141344cd1fd0a4f28419497f9722a3daafe3b4186f6b6457e0905f90a35050565b6001600160a01b038216620002f85760405163ec442f0560e01b81525f6004820152602401620001f8565b620003055f838362000309565b5050565b6001600160a01b03831662000337578060025f8282546200032b9190620006c4565b90915550620003a99050565b6001600160a01b0383165f90815260208190526040902054818110156200038b5760405163391434e360e21b81526001600160a01b03851660048201526024810182905260448101839052606401620001f8565b6001600160a01b0384165f9081526020819052604090209082900390555b6001600160a01b038216620003c757600280548290039055620003e5565b6001600160a01b0382165f9081526020819052604090208054820190555b816001600160a01b0316836001600160a01b03167fddf252ad1be2c89b69c2b068fc378daa952ba7f163c4a11628f55a4df523b3ef836040516200042b91815260200190565b60405180910390a3505050565b634e487b7160e01b5f52604160045260245ffd5b5f82601f8301126200045c575f80fd5b81516001600160401b038082111562000479576200047962000438565b604051601f8301601f19908116603f01168101908282118183101715620004a457620004a462000438565b8160405283815260209250866020858801011115620004c1575f80fd5b5f91505b83821015620004e45785820183015181830184015290820190620004c5565b5f602085830101528094505050505092915050565b5f805f80608085870312156200050d575f80fd5b84516001600160401b038082111562000524575f80fd5b62000532888389016200044c565b9550602087015191508082111562000548575f80fd5b5062000557878288016200044c565b604087015160609097015195989097509350505050565b600181811c908216806200058357607f821691505b602082108103620005a257634e487b7160e01b5f52602260045260245ffd5b50919050565b601f821115620005f357805f5260205f20601f840160051c81016020851015620005cf5750805b601f840160051c820191505b81811015620005f0575f8155600101620005db565b50505b505050565b81516001600160401b0381111562000614576200061462000438565b6200062c816200062584546200056e565b84620005a8565b602080601f83116001811462000662575f84156200064a5750858301515b5f19600386901b1c1916600185901b178555620006bc565b5f85815260208120601f198616915b82811015620006925788860151825594840194600190910190840162000671565b5085821015620006b057878501515f19600388901b60f8161c191681555b505060018460011b0185555b505050505050565b80820180821115620006e457634e487b7160e01b5f52601160045260245ffd5b92915050565b612c3d80620006f85f395ff3fe60806040526004361061018e575f3560e01c80636198e339116100dc57806396b5a75511610087578063b099603911610062578063b0996039146104bc578063b6785710146104db578063dd62ed3e146104f0578063f2fde38b14610534575f80fd5b806396b5a7551461046b578063a61c80771461048a578063a9059cbb1461049d575f80fd5b8063840e486f116100b7578063840e486f146104115780638da5cb5b1461043057806395d89b4114610457575f80fd5b80636198e339146103aa57806370a08231146103c9578063715018a6146103fd575f80fd5b8063313ce5671161013c578063571a26a011610117578063571a26a0146102c35780635a4ed8f1146103765780635f1b03e01461038b575f80fd5b8063313ce5671461025e57806345643a5a146102795780634c1039b414610298575f80fd5b806318160ddd1161016c57806318160ddd1461020a578063199de1e21461021e57806323b872dd1461023f575f80fd5b806302890ab91461019257806306fdde03146101ba578063095ea7b3146101db575b5f80fd5b34801561019d575f80fd5b506101a760155481565b6040519081526020015b60405180910390f35b3480156101c5575f80fd5b506101ce610553565b6040516101b1919061283a565b3480156101e6575f80fd5b506101fa6101f5366004612860565b6105e3565b60405190151581526020016101b1565b348015610215575f80fd5b506002546101a7565b348015610229575f80fd5b5061023d61023836600461288a565b6105fc565b005b34801561024a575f80fd5b506101fa6102593660046128a1565b6107c4565b348015610269575f80fd5b50604051601281526020016101b1565b348015610284575f80fd5b5061023d61029336600461288a565b6107e7565b3480156102a3575f80fd5b506101a76102b236600461288a565b60176020525f908152604090205481565b3480156102ce575f80fd5b5061032f6102dd36600461288a565b60166020525f9081526040902080546001820154600283015460038401546004850154600586015460068701546007909701546001600160a01b03909616969495939492939192909160ff9091169088565b604080516001600160a01b0390991689526020890197909752958701949094526060860192909252608085015260a0840152151560c083015260e0820152610100016101b1565b348015610381575f80fd5b506101a760145481565b348015610396575f80fd5b5061023d6103a53660046128df565b610a2e565b3480156103b5575f80fd5b5061023d6103c436600461288a565b610a84565b3480156103d4575f80fd5b506101a76103e33660046128ff565b6001600160a01b03165f9081526020819052604090205490565b348015610408575f80fd5b5061023d610cb1565b34801561041c575f80fd5b506101a761042b36600461295f565b610cc4565b34801561043b575f80fd5b506005546040516001600160a01b0390911681526020016101b1565b348015610462575f80fd5b506101ce610ee5565b348015610476575f80fd5b5061023d61048536600461288a565b610ef4565b61023d61049836600461288a565b611067565b3480156104a8575f80fd5b506101fa6104b7366004612860565b61129a565b3480156104c7575f80fd5b5061023d6104d63660046129dc565b6112a7565b3480156104e6575f80fd5b506101a760135481565b3480156104fb575f80fd5b506101a761050a366004612a05565b6001600160a01b039182165f90815260016020908152604080832093909416825291909152205490565b34801561053f575f80fd5b5061023d61054e3660046128ff565b611348565b60606003805461056290612a3c565b80601f016020809104026020016040519081016040528092919081815260200182805461058e90612a3c565b80156105d95780601f106105b0576101008083540402835291602001916105d9565b820191905f5260205f20905b8154815290600101906020018083116105bc57829003601f168201915b5050505050905090565b5f336105f0818585611382565b60019150505b92915050565b60145442116106525760405162461bcd60e51b815260206004820152601260248201527f554e46494e49534845445f41554354494f4e000000000000000000000000000060448201526064015b60405180910390fd5b601354601554106106a55760405162461bcd60e51b815260206004820152601060248201527f50524f434545445f414c4c5f44415441000000000000000000000000000000006044820152606401610649565b5f811180156106b75750601354601554105b156107c1576015545f9081526016602052604090206006015460ff161561079a576040805160028082526060820183525f92602083019080368337019050506015545f90815260166020526040902060020154909150815f8151811061071f5761071f612a74565b60200260200101818152505061074860165f60155481526020019081526020015f206003015490565b8160018151811061075b5761075b612a74565b60209081029190910101525f6107858263b099603960e01b8361077f426064612a9c565b5f611394565b6013545f918252601760205260409091205550505b60158054905f6107a983612aaf565b919050555080806107b990612ac7565b9150506106a5565b50565b5f336107d18582856114be565b6107dc85858561153a565b506001949350505050565b6107ef611597565b305f9081526020819052604081205411801561080a57505f81115b8015610817575060115415155b1561098b575f61082760116115c1565b90505b5f818152601860205260409020541561097a57815f0361084a5750610a24565b5f818152601860205260408120805461086590600190612adc565b8154811061087557610875612a74565b905f5260205f200154905060185f8381526020019081526020015f208054806108a0576108a0612aef565b600190038181905f5260205f20015f905590555f6108fc6108d5306001600160a01b03165f9081526020819052604090205490565b5f84815260166020526040902060058101546004909101546108f79190612b03565b6115ff565b90508060165f8481526020019081526020015f206007015f8282546109219190612adc565b90915550505f828152601660205260409020546109499030906001600160a01b03168361153a565b305f908152602081905260409020545f0361096657505050610a24565b8361097081612ac7565b945050505061082a565b610985601182611611565b506107ef565b305f908152602081905260408120541180156109a75750601154155b15610a2457610a2430306001600160a01b0316638da5cb5b6040518163ffffffff1660e01b8152600401602060405180830381865afa1580156109ec573d5f803e3d5ffd5b505050506040513d601f19601f82011682018060405250810190610a109190612b1a565b305f9081526020819052604090205461153a565b6107c16001601055565b7f93ab6e17f2c461cce6ea5d4ec117e51dda77a64affc2b2c05f8cd440def0e700546001600160a01b03163314610a63575f80fd5b5f918252601760209081526040808420548452601690915290912060070155565b610a8c611597565b305f9081526020819052604090205415610ae85760405162461bcd60e51b815260206004820152601960248201527f5354494c4c5f544f4b454e5f554e4449535452494255544544000000000000006044820152606401610649565b5f818152601660205260409020546001600160a01b03163314610b3c5760405162461bcd60e51b815260206004820152600c60248201526b24a72b20a624a22faaa9a2a960a11b6044820152606401610649565b5f8181526016602052604090206006015460ff16610b9c5760405162461bcd60e51b815260206004820152601560248201527f4e4f545f56414c4944415445445f41554354494f4e00000000000000000000006044820152606401610649565b5f81815260166020526040902060070154610bf95760405162461bcd60e51b815260206004820152600d60248201527f4e4f5f4d4f52455f544f4b454e000000000000000000000000000000000000006044820152606401610649565b5f81815260166020526040808220600701549051909190339083905b5f6040518083038185875af1925050503d805f8114610c4f576040519150601f19603f3d011682016040523d82523d5f602084013e610c54565b606091505b5050905080610ca55760405162461bcd60e51b815260206004820152600d60248201527f526566756e64206661696c6564000000000000000000000000000000000000006044820152606401610649565b50506107c16001601055565b610cb961182c565b610cc25f611859565b565b5f6014544210610ce757604051635d479c3d60e01b815260040160405180910390fd5b5f610d278887878080601f0160208091040260200160405190810160405280939291908181526020018383808284375f920191909152506118b792505050565b90505f610d698886868080601f0160208091040260200160405190810160405280939291908181526020018383808284375f920191909152506118b792505050565b9050610d74826118c4565b610d7d816118c4565b5f610d8883836118ce565b9050610d93816118c4565b6040805160018082528183019092525f916020808301908036833701905050905081815f81518110610dc757610dc7612a74565b60209081029190910101525f610deb826302f8d81f60e51b8361077f426064612a9c565b601380545f838152601760209081526040808320849055805161010081018252338152428184019081528183018d8152606083018d81526080840187815260a0850188815260c0860189815260e087018a81529a8a5260169098529588209451855473ffffffffffffffffffffffffffffffffffffffff19166001600160a01b03909116178555925160018501559051600284015551600383015551600482015590516005820155905160068201805460ff191691151591909117905591516007909201919091558154929350610ec183612aaf565b91905055506001601354610ed59190612adc565b9c9b505050505050505050505050565b60606004805461056290612a3c565b6014544210610f1657604051635d479c3d60e01b815260040160405180910390fd5b610f1e611597565b6013548110610f6f5760405162461bcd60e51b815260206004820152601260248201527f494e56414c49445f41554354494f4e5f494400000000000000000000000000006044820152606401610649565b5f818152601660205260409020546001600160a01b03163314610fc35760405162461bcd60e51b815260206004820152600c60248201526b24a72b20a624a22faaa9a2a960a11b6044820152606401610649565b5f8181526016602052604090206006015460ff166110235760405162461bcd60e51b815260206004820152601560248201527f4e4f545f56414c4944415445445f41554354494f4e00000000000000000000006044820152606401610649565b5f81815260166020526040902060078101546006909101805460ff19169055801561105c575f336001600160a01b031682604051610c15565b506107c16001601055565b601454421061108957604051635d479c3d60e01b815260040160405180910390fd5b611091611597565b60135481106110e25760405162461bcd60e51b815260206004820152601260248201527f494e56414c49445f41554354494f4e5f494400000000000000000000000000006044820152606401610649565b5f818152601660205260409020546001600160a01b031633146111365760405162461bcd60e51b815260206004820152600c60248201526b24a72b20a624a22faaa9a2a960a11b6044820152606401610649565b5f8181526016602052604090206006015460ff16156111975760405162461bcd60e51b815260206004820152601160248201527f414c52454144595f56414c4944415445440000000000000000000000000000006044820152606401610649565b5f818152601660205260409020600701546111f45760405162461bcd60e51b815260206004820152600f60248201527f494e56414c49445f41554354494f4e00000000000000000000000000000000006044820152606401610649565b5f818152601660205260409020600701543410156112545760405162461bcd60e51b815260206004820152601060248201527f4e4f545f454e4f5547485f46554e4453000000000000000000000000000000006044820152606401610649565b5f81815260166020526040812060068101805460ff191660011790556007015461127e9034612adc565b9050801561105c575f336001600160a01b031682604051610c15565b5f336105f081858561153a565b7f93ab6e17f2c461cce6ea5d4ec117e51dda77a64affc2b2c05f8cd440def0e700546001600160a01b031633146112dc575f80fd5b5f83815260176020908152604080832054848452601890925282205490910361130a5761130a6011836118fc565b5f8181526016602090815260408083206004810196909655600590950184905592815260188352928320805460018101825590845291909220015550565b61135061182c565b6001600160a01b03811661137957604051631e4fbdf760e01b81525f6004820152602401610649565b6107c181611859565b61138f8383836001611a07565b505050565b7fed8d60e34876f751cc8b014c560745351147d9de11b9347c854e881b128ea600805460405163155f840160e21b81525f92916001600160a01b03169063557e1004906113e5908a90600401612b6f565b5f604051808303815f87803b1580156113fc575f80fd5b505af115801561140e573d5f803e3d5ffd5b505050505f61143a7f93ab6e17f2c461cce6ea5d4ec117e51dda77a64affc2b2c05f8cd440def0e70090565b8054604051634c0d927760e01b81529192506001600160a01b031690634c0d927790611472908b908b908b908b908b90600401612b81565b6020604051808303815f875af115801561148e573d5f803e3d5ffd5b505050506040513d601f19601f820116820180604052508101906114b29190612bdb565b98975050505050505050565b6001600160a01b038381165f908152600160209081526040808320938616835292905220545f19811015611534578181101561152657604051637dc7a0d960e11b81526001600160a01b03841660048201526024810182905260448101839052606401610649565b61153484848484035f611a07565b50505050565b6001600160a01b03831661156357604051634b637e8f60e11b81525f6004820152602401610649565b6001600160a01b03821661158c5760405163ec442f0560e01b81525f6004820152602401610649565b61138f838383611ad9565b6002601054036115ba57604051633ee5aeb560e01b815260040160405180910390fd5b6002601055565b805480156115fa575b5f818152600183016020526040902060020154156115fa575f9081526001820160205260409020600201546115ca565b919050565b5f8282188284100282185b9392505050565b8061161a575f80fd5b6116248282611bff565b61162c575f80fd5b5f81815260018084016020526040822001548190158061165c57505f838152600185016020526040902060020154155b156116685750816116ad565b505f8281526001840160205260409020600201545b5f818152600180860160205260409091200154156116ad575f90815260018085016020526040909120015461167d565b5f818152600180860160205260409091200154156116df575f81815260018086016020526040909120015491506116f5565b5f81815260018501602052604090206002015491505b5f8181526001850160205260408082205484835291208190558015611761575f8181526001808701602052604090912001548203611747575f8181526001808701602052604090912001839055611765565b5f8181526001860160205260409020600201839055611765565b8285555b5f82815260018601602052604090206003015460ff16158483146117ed5761178e868487611c2c565b5f8581526001878101602052604080832080830154878552828520938401819055845281842087905560028082015490840181905584529083208690556003908101549286905201805460ff191660ff90921615159190911790559193915b80156117fd576117fd8685611c9e565b50505f90815260019384016020526040812081815593840181905560028401555050600301805460ff19169055565b6005546001600160a01b03163314610cc25760405163118cdaa760e01b8152336004820152602401610649565b600580546001600160a01b0383811673ffffffffffffffffffffffffffffffffffffffff19831681179093556040519116919082907f8be0079c531659141344cd1fd0a4f28419497f9722a3daafe3b4186f6b6457e0905f90a35050565b5f61160a8383600861209f565b6107c181306121c3565b5f826118e0576118dd5f61224c565b92505b816118f1576118ee5f61224c565b91505b61160a83835f612258565b80611905575f80fd5b61190f8282611bff565b15611918575f80fd5b81545f905b801561195e5780915080831015611946575f90815260018085016020526040909120015461191d565b5f90815260018401602052604090206002015461191d565b604080516080810182528381525f60208083018281528385018381526001606086018181528a86528b82019094529590932093518455519383019390935551600282015590516003909101805460ff1916911515919091179055816119c5578284556119fd565b818310156119e7575f82815260018086016020526040909120018390556119fd565b5f82815260018501602052604090206002018390555b6115348484612338565b6001600160a01b038416611a305760405163e602df0560e01b81525f6004820152602401610649565b6001600160a01b038316611a5957604051634a1406b160e11b81525f6004820152602401610649565b6001600160a01b038085165f908152600160209081526040808320938716835292905220829055801561153457826001600160a01b0316846001600160a01b03167f8c5be1e5ebec7d5bd14f71427d1e84f3dd0314c0f7b2291e5b200ac8c7c3b92584604051611acb91815260200190565b60405180910390a350505050565b6001600160a01b038316611b03578060025f828254611af89190612a9c565b90915550611b739050565b6001600160a01b0383165f9081526020819052604090205481811015611b555760405163391434e360e21b81526001600160a01b03851660048201526024810182905260448101839052606401610649565b6001600160a01b0384165f9081526020819052604090209082900390555b6001600160a01b038216611b8f57600280548290039055611bad565b6001600160a01b0382165f9081526020819052604090208054820190555b816001600160a01b0316836001600160a01b03167fddf252ad1be2c89b69c2b068fc378daa952ba7f163c4a11628f55a4df523b3ef83604051611bf291815260200190565b60405180910390a3505050565b5f811580159061160a5750825482148061160a5750505f9081526001919091016020526040902054151590565b5f81815260018401602052604080822054848352912081905580611c5257828455611534565b5f8181526001808601602052604090912001548203611c85575f8181526001808601602052604090912001839055611534565b5f90815260019390930160205250604090912060020155565b5f5b82548214801590611cc457505f82815260018401602052604090206003015460ff16155b15612081575f8281526001808501602052604080832054808452922001548303611eb4575f8181526001850160205260408082206002015480835291206003015490925060ff1615611d63575f828152600180860160205260408083206003908101805460ff19908116909155858552919093209092018054909216179055611d4d8482612594565b5f81815260018501602052604090206002015491505b5f8281526001808601602052604080832090910154825290206003015460ff16158015611dac57505f82815260018501602052604080822060020154825290206003015460ff16155b15611dd8575f82815260018581016020526040909120600301805460ff1916909117905591508161207b565b5f82815260018501602052604080822060020154825290206003015460ff16611e52575f828152600180860160205260408083208083015484529083206003908101805460ff1990811690915593869052018054909216179055611e3c8483612664565b5f81815260018501602052604090206002015491505b5f81815260018501602052604080822060039081018054868552838520808401805460ff909316151560ff199384161790558254821690925560029091015484529190922090910180549091169055611eab8482612594565b8354925061207b565b5f818152600180860160205260408083209091015480835291206003015490925060ff1615611f30575f828152600180860160205260408083206003908101805460ff19908116909155858552919093209092018054909216179055611f1a8482612664565b5f81815260018086016020526040909120015491505b5f82815260018501602052604080822060020154825290206003015460ff16158015611f7957505f8281526001808601602052604080832090910154825290206003015460ff16155b15611fa5575f82815260018581016020526040909120600301805460ff1916909117905591508161207b565b5f8281526001808601602052604080832090910154825290206003015460ff16612021575f82815260018086016020526040808320600281015484529083206003908101805460ff199081169091559386905201805490921617905561200b8483612594565b5f81815260018086016020526040909120015491505b5f8181526001808601602052604080832060039081018054878652838620808401805460ff909316151560ff199384161790558254821690925593015484529220909101805490911690556120768482612664565b835492505b50611ca0565b505f908152600190910160205260409020600301805460ff19169055565b7fed8d60e34876f751cc8b014c560745351147d9de11b9347c854e881b128ea601546040516302e817ff60e41b81525f917fed8d60e34876f751cc8b014c560745351147d9de11b9347c854e881b128ea600916001600160a01b0390911690632e817ff09061211c9088903390899060f88a901b90600401612bf2565b6020604051808303815f875af1158015612138573d5f803e3d5ffd5b505050506040513d601f19601f8201168201806040525081019061215c9190612bdb565b81546040516346ce4e4960e11b8152600481018390523360248201529193506001600160a01b031690638d9c9c92906044015f604051808303815f87803b1580156121a5575f80fd5b505af11580156121b7573d5f803e3d5ffd5b50505050509392505050565b5f7fed8d60e34876f751cc8b014c560745351147d9de11b9347c854e881b128ea6008054604051631974142760e21b8152600481018690526001600160a01b0385811660248301529293509116906365d0509c906044015f604051808303815f87803b158015612231575f80fd5b505af1158015612243573d5f803e3d5ffd5b50505050505050565b5f6105f6826008612731565b5f80821561226b5750600160f81b61226e565b505f5b5f7fed8d60e34876f751cc8b014c560745351147d9de11b9347c854e881b128ea600600181015460405163816d57d360e01b815260048101899052602481018890527fff00000000000000000000000000000000000000000000000000000000000000851660448201529192506001600160a01b03169063816d57d3906064016020604051808303815f875af115801561230a573d5f803e3d5ffd5b505050506040513d601f19601f8201168201806040525081019061232e9190612bdb565b9695505050505050565b5f5b8254821480159061236357505f82815260018401602052604080822054825290206003015460ff165b15612573575f828152600180850160205260408083205480845281842054845292200154810361247f575f8181526001850160205260408082205482528082206002015480835291206003015490925060ff1615612408575f818152600180860160205260408083206003808201805460ff1990811690915587865283862082018054821690558254865292852001805490921690921790559082905254925061256d565b5f818152600185016020526040902060020154830361242e5780925061242e8484612594565b505f82815260018085016020526040808320548084528184206003808201805460ff1990811690915582548752938620018054909316909317909155918290525461247a908590612664565b61256d565b5f818152600180860160205260408083205483528083209091015480835291206003015490925060ff16156124fb575f818152600180860160205260408083206003808201805460ff1990811690915587865283862082018054821690558254865292852001805490921690921790559082905254925061256d565b5f8181526001808601602052604090912001548303612521578092506125218484612664565b505f82815260018085016020526040808320548084528184206003808201805460ff1990811690915582548752938620018054909316909317909155918290525461256d908590612594565b5061233a565b505080545f908152600190910160205260409020600301805460ff19169055565b5f818152600180840160205260408083206002810180549154828652928520909301549385905291839055909180156125da575f81815260018601602052604090208490555b5f8381526001860160205260409020829055816125f957828555612642565b5f828152600180870160205260409091200154840361262c575f8281526001808701602052604090912001839055612642565b5f82815260018601602052604090206002018390555b50505f8181526001938401602052604080822090940183905591825291902055565b5f81815260018084016020526040808320918201805492548385529184206002015493859052839055909180156126a8575f81815260018601602052604090208490555b5f8381526001860160205260409020829055816126c757828555612710565b5f82815260018601602052604090206002015484036126fa575f8281526001860160205260409020600201839055612710565b5f82815260018087016020526040909120018390555b50505f81815260019093016020526040808420600201839055918352912055565b5f807fed8d60e34876f751cc8b014c560745351147d9de11b9347c854e881b128ea6006001810154604051631ce2e8d760e31b8152600481018790527fff0000000000000000000000000000000000000000000000000000000000000060f887901b1660248201529192506001600160a01b03169063e71746b8906044016020604051808303815f875af11580156127cb573d5f803e3d5ffd5b505050506040513d601f19601f820116820180604052508101906127ef9190612bdb565b949350505050565b5f81518084525f5b8181101561281b576020818501810151868301820152016127ff565b505f602082860101526020601f19601f83011685010191505092915050565b602081525f61160a60208301846127f7565b6001600160a01b03811681146107c1575f80fd5b5f8060408385031215612871575f80fd5b823561287c8161284c565b946020939093013593505050565b5f6020828403121561289a575f80fd5b5035919050565b5f805f606084860312156128b3575f80fd5b83356128be8161284c565b925060208401356128ce8161284c565b929592945050506040919091013590565b5f80604083850312156128f0575f80fd5b50508035926020909101359150565b5f6020828403121561290f575f80fd5b813561160a8161284c565b5f8083601f84011261292a575f80fd5b50813567ffffffffffffffff811115612941575f80fd5b602083019150836020828501011115612958575f80fd5b9250929050565b5f805f805f8060808789031215612974575f80fd5b8635955060208701359450604087013567ffffffffffffffff80821115612999575f80fd5b6129a58a838b0161291a565b909650945060608901359150808211156129bd575f80fd5b506129ca89828a0161291a565b979a9699509497509295939492505050565b5f805f606084860312156129ee575f80fd5b505081359360208301359350604090920135919050565b5f8060408385031215612a16575f80fd5b8235612a218161284c565b91506020830135612a318161284c565b809150509250929050565b600181811c90821680612a5057607f821691505b602082108103612a6e57634e487b7160e01b5f52602260045260245ffd5b50919050565b634e487b7160e01b5f52603260045260245ffd5b634e487b7160e01b5f52601160045260245ffd5b808201808211156105f6576105f6612a88565b5f60018201612ac057612ac0612a88565b5060010190565b5f81612ad557612ad5612a88565b505f190190565b818103818111156105f6576105f6612a88565b634e487b7160e01b5f52603160045260245ffd5b80820281158282048414176105f6576105f6612a88565b5f60208284031215612b2a575f80fd5b815161160a8161284c565b5f815180845260208085019450602084015f5b83811015612b6457815187529582019590820190600101612b48565b509495945050505050565b602081525f61160a6020830184612b35565b60a081525f612b9360a0830188612b35565b7fffffffff0000000000000000000000000000000000000000000000000000000096909616602083015250604081019390935260608301919091521515608090910152919050565b5f60208284031215612beb575f80fd5b5051919050565b8481526001600160a01b0384166020820152608060408201525f612c1960808301856127f7565b905060ff60f81b831660608301529594505050505056fea164736f6c6343000818000a",
  "linkReferences": {},
  "deployedLinkReferences": {}
}