{
  "_format": "hh-sol-artifact-1",
  "contractName": "PrivateAuction",
  "sourceName": "src/PrivateAuction.sol",
  "abi": [
    {
      "inputs": [
        {
          "internalType": "string",
          "name": "_name",
          "type": "string"
        },
        {
          "internalType": "string",
          "name": "_symbol",
          "type": "string"
        },
        {
          "internalType": "uint256",
          "name": "_supply",
          "type": "uint256"
        },
        {
          "internalType": "uint256",
          "name": "_endAuctionTime",
          "type": "uint256"
        }
      ],
      "stateMutability": "nonpayable",
      "type": "constructor"
    },
    {
      "inputs": [
        {
          "internalType": "address",
          "name": "spender",
          "type": "address"
        },
        {
          "internalType": "uint256",
          "name": "allowance",
          "type": "uint256"
        },
        {
          "internalType": "uint256",
          "name": "needed",
          "type": "uint256"
        }
      ],
      "name": "ERC20InsufficientAllowance",
      "type": "error"
    },
    {
      "inputs": [
        {
          "internalType": "address",
          "name": "sender",
          "type": "address"
        },
        {
          "internalType": "uint256",
          "name": "balance",
          "type": "uint256"
        },
        {
          "internalType": "uint256",
          "name": "needed",
          "type": "uint256"
        }
      ],
      "name": "ERC20InsufficientBalance",
      "type": "error"
    },
    {
      "inputs": [
        {
          "internalType": "address",
          "name": "approver",
          "type": "address"
        }
      ],
      "name": "ERC20InvalidApprover",
      "type": "error"
    },
    {
      "inputs": [
        {
          "internalType": "address",
          "name": "receiver",
          "type": "address"
        }
      ],
      "name": "ERC20InvalidReceiver",
      "type": "error"
    },
    {
      "inputs": [
        {
          "internalType": "address",
          "name": "sender",
          "type": "address"
        }
      ],
      "name": "ERC20InvalidSender",
      "type": "error"
    },
    {
      "inputs": [
        {
          "internalType": "address",
          "name": "spender",
          "type": "address"
        }
      ],
      "name": "ERC20InvalidSpender",
      "type": "error"
    },
    {
      "inputs": [],
      "name": "FinishedAuctionError",
      "type": "error"
    },
    {
      "inputs": [
        {
          "internalType": "address",
          "name": "owner",
          "type": "address"
        }
      ],
      "name": "OwnableInvalidOwner",
      "type": "error"
    },
    {
      "inputs": [
        {
          "internalType": "address",
          "name": "account",
          "type": "address"
        }
      ],
      "name": "OwnableUnauthorizedAccount",
      "type": "error"
    },
    {
      "inputs": [],
      "name": "ReentrancyGuardReentrantCall",
      "type": "error"
    },
    {
      "anonymous": false,
      "inputs": [
        {
          "indexed": true,
          "internalType": "address",
          "name": "owner",
          "type": "address"
        },
        {
          "indexed": true,
          "internalType": "address",
          "name": "spender",
          "type": "address"
        },
        {
          "indexed": false,
          "internalType": "uint256",
          "name": "value",
          "type": "uint256"
        }
      ],
      "name": "Approval",
      "type": "event"
    },
    {
      "anonymous": false,
      "inputs": [
        {
          "indexed": true,
          "internalType": "address",
          "name": "previousOwner",
          "type": "address"
        },
        {
          "indexed": true,
          "internalType": "address",
          "name": "newOwner",
          "type": "address"
        }
      ],
      "name": "OwnershipTransferred",
      "type": "event"
    },
    {
      "anonymous": false,
      "inputs": [
        {
          "indexed": true,
          "internalType": "address",
          "name": "from",
          "type": "address"
        },
        {
          "indexed": true,
          "internalType": "address",
          "name": "to",
          "type": "address"
        },
        {
          "indexed": false,
          "internalType": "uint256",
          "name": "value",
          "type": "uint256"
        }
      ],
      "name": "Transfer",
      "type": "event"
    },
    {
      "inputs": [
        {
          "internalType": "address",
          "name": "owner",
          "type": "address"
        },
        {
          "internalType": "address",
          "name": "spender",
          "type": "address"
        }
      ],
      "name": "allowance",
      "outputs": [
        {
          "internalType": "uint256",
          "name": "",
          "type": "uint256"
        }
      ],
      "stateMutability": "view",
      "type": "function"
    },
    {
      "inputs": [
        {
          "internalType": "address",
          "name": "spender",
          "type": "address"
        },
        {
          "internalType": "uint256",
          "name": "value",
          "type": "uint256"
        }
      ],
      "name": "approve",
      "outputs": [
        {
          "internalType": "bool",
          "name": "",
          "type": "bool"
        }
      ],
      "stateMutability": "nonpayable",
      "type": "function"
    },
    {
      "inputs": [
        {
          "internalType": "uint256",
          "name": "auctionId",
          "type": "uint256"
        }
      ],
      "name": "auctions",
      "outputs": [
        {
          "internalType": "address",
          "name": "user",
          "type": "address"
        },
        {
          "internalType": "uint256",
          "name": "creationTime",
          "type": "uint256"
        },
        {
          "internalType": "euint256",
          "name": "eRequestedAmount",
          "type": "uint256"
        },
        {
          "internalType": "euint256",
          "name": "ePricePerUnit",
          "type": "uint256"
        },
        {
          "internalType": "uint256",
          "name": "dRequestedAmount",
          "type": "uint256"
        },
        {
          "internalType": "uint256",
          "name": "dPricePerUnit",
          "type": "uint256"
        },
        {
          "internalType": "bool",
          "name": "validated",
          "type": "bool"
        },
        {
          "internalType": "uint256",
          "name": "totalValueLock",
          "type": "uint256"
        }
      ],
      "stateMutability": "view",
      "type": "function"
    },
    {
      "inputs": [
        {
          "internalType": "address",
          "name": "account",
          "type": "address"
        }
      ],
      "name": "balanceOf",
      "outputs": [
        {
          "internalType": "uint256",
          "name": "",
          "type": "uint256"
        }
      ],
      "stateMutability": "view",
      "type": "function"
    },
    {
      "inputs": [
        {
          "internalType": "uint256",
          "name": "auctionId",
          "type": "uint256"
        }
      ],
      "name": "cancelAuction",
      "outputs": [],
      "stateMutability": "nonpayable",
      "type": "function"
    },
    {
      "inputs": [
        {
          "internalType": "uint256",
          "name": "auctionId",
          "type": "uint256"
        }
      ],
      "name": "confirmAuction",
      "outputs": [],
      "stateMutability": "payable",
      "type": "function"
    },
    {
      "inputs": [
        {
          "internalType": "einput",
          "name": "eRequestedAmount",
          "type": "bytes32"
        },
        {
          "internalType": "einput",
          "name": "ePricePerUnit",
          "type": "bytes32"
        },
        {
          "internalType": "bytes",
          "name": "inputProof",
          "type": "bytes"
        }
      ],
      "name": "createAuction",
      "outputs": [
        {
          "internalType": "uint256",
          "name": "",
          "type": "uint256"
        }
      ],
      "stateMutability": "nonpayable",
      "type": "function"
    },
    {
      "inputs": [],
      "name": "decimals",
      "outputs": [
        {
          "internalType": "uint8",
          "name": "",
          "type": "uint8"
        }
      ],
      "stateMutability": "view",
      "type": "function"
    },
    {
      "inputs": [
        {
          "internalType": "uint256",
          "name": "requestId",
          "type": "uint256"
        }
      ],
      "name": "decypherProcess",
      "outputs": [
        {
          "internalType": "uint256",
          "name": "auctionId",
          "type": "uint256"
        }
      ],
      "stateMutability": "view",
      "type": "function"
    },
    {
      "inputs": [
        {
          "internalType": "uint256",
          "name": "numberToProceed",
          "type": "uint256"
        }
      ],
      "name": "distributeToken",
      "outputs": [],
      "stateMutability": "nonpayable",
      "type": "function"
    },
    {
      "inputs": [],
      "name": "endAuctionTime",
      "outputs": [
        {
          "internalType": "uint256",
          "name": "",
          "type": "uint256"
        }
      ],
      "stateMutability": "view",
      "type": "function"
    },
    {
      "inputs": [
        {
          "internalType": "uint256",
          "name": "requestId",
          "type": "uint256"
        },
        {
          "internalType": "uint256",
          "name": "requestedAmount",
          "type": "uint256"
        },
        {
          "internalType": "uint256",
          "name": "pricePerUnit",
          "type": "uint256"
        }
      ],
      "name": "gateway_callback_decypher_auction",
      "outputs": [],
      "stateMutability": "nonpayable",
      "type": "function"
    },
    {
      "inputs": [
        {
          "internalType": "uint256",
          "name": "requestId",
          "type": "uint256"
        },
        {
          "internalType": "uint256",
          "name": "result",
          "type": "uint256"
        }
      ],
      "name": "gateway_decypher_total_value",
      "outputs": [],
      "stateMutability": "nonpayable",
      "type": "function"
    },
    {
      "inputs": [],
      "name": "lastAuctionId",
      "outputs": [
        {
          "internalType": "uint256",
          "name": "",
          "type": "uint256"
        }
      ],
      "stateMutability": "view",
      "type": "function"
    },
    {
      "inputs": [],
      "name": "lastAuctionProccessed",
      "outputs": [
        {
          "internalType": "uint256",
          "name": "",
          "type": "uint256"
        }
      ],
      "stateMutability": "view",
      "type": "function"
    },
    {
      "inputs": [],
      "name": "name",
      "outputs": [
        {
          "internalType": "string",
          "name": "",
          "type": "string"
        }
      ],
      "stateMutability": "view",
      "type": "function"
    },
    {
      "inputs": [],
      "name": "owner",
      "outputs": [
        {
          "internalType": "address",
          "name": "",
          "type": "address"
        }
      ],
      "stateMutability": "view",
      "type": "function"
    },
    {
      "inputs": [],
      "name": "renounceOwnership",
      "outputs": [],
      "stateMutability": "nonpayable",
      "type": "function"
    },
    {
      "inputs": [
        {
          "internalType": "uint256",
          "name": "numberToProcceed",
          "type": "uint256"
        }
      ],
      "name": "resolveAuction",
      "outputs": [],
      "stateMutability": "nonpayable",
      "type": "function"
    },
    {
      "inputs": [],
      "name": "symbol",
      "outputs": [
        {
          "internalType": "string",
          "name": "",
          "type": "string"
        }
      ],
      "stateMutability": "view",
      "type": "function"
    },
    {
      "inputs": [],
      "name": "totalSupply",
      "outputs": [
        {
          "internalType": "uint256",
          "name": "",
          "type": "uint256"
        }
      ],
      "stateMutability": "view",
      "type": "function"
    },
    {
      "inputs": [
        {
          "internalType": "address",
          "name": "to",
          "type": "address"
        },
        {
          "internalType": "uint256",
          "name": "value",
          "type": "uint256"
        }
      ],
      "name": "transfer",
      "outputs": [
        {
          "internalType": "bool",
          "name": "",
          "type": "bool"
        }
      ],
      "stateMutability": "nonpayable",
      "type": "function"
    },
    {
      "inputs": [
        {
          "internalType": "address",
          "name": "from",
          "type": "address"
        },
        {
          "internalType": "address",
          "name": "to",
          "type": "address"
        },
        {
          "internalType": "uint256",
          "name": "value",
          "type": "uint256"
        }
      ],
      "name": "transferFrom",
      "outputs": [
        {
          "internalType": "bool",
          "name": "",
          "type": "bool"
        }
      ],
      "stateMutability": "nonpayable",
      "type": "function"
    },
    {
      "inputs": [
        {
          "internalType": "address",
          "name": "newOwner",
          "type": "address"
        }
      ],
      "name": "transferOwnership",
      "outputs": [],
      "stateMutability": "nonpayable",
      "type": "function"
    },
    {
      "inputs": [
        {
          "internalType": "uint256",
          "name": "auctionId",
          "type": "uint256"
        }
      ],
      "name": "unlock",
      "outputs": [],
      "stateMutability": "nonpayable",
      "type": "function"
    }
  ],
  "bytecode": "0x608060405234801562000010575f80fd5b50604051620033393803806200333983398101604081905262000033916200053e565b338484620001b2620000d6604080516080810182525f808252602082018190529181018290526060810191909152506040805160808101825273fee8407e2f5e3ee68ad77cae98c434e637f516e5815273687408ab54661ba0b4aef3a44156c616c6955e07602082015273fb03be574d14c256d56f09a198b586bdfc0a9de291810191909152739d6891a6240d6130c54ae243d8005063d05fe14b606082015290565b80517fed8d60e34876f751cc8b014c560745351147d9de11b9347c854e881b128ea60080546001600160a01b03199081166001600160a01b039384161790915560208301517fed8d60e34876f751cc8b014c560745351147d9de11b9347c854e881b128ea6018054831691841691909117905560408301517fed8d60e34876f751cc8b014c560745351147d9de11b9347c854e881b128ea6028054831691841691909117905560608301517fed8d60e34876f751cc8b014c560745351147d9de11b9347c854e881b128ea6038054909216921691909117905550565b7f93ab6e17f2c461cce6ea5d4ec117e51dda77a64affc2b2c05f8cd440def0e70080546001600160a01b0319167333347831500f1e73f0cccbb95c9f86b94d7b112317905560036200020583826200063d565b5060046200021482826200063d565b5050506001600160a01b0381166200024657604051631e4fbdf760e01b81525f60048201526024015b60405180910390fd5b6200025181620002c1565b506001601055428111620002a85760405162461bcd60e51b815260206004820152601860248201527f494e56414c49445f454e445f41554354494f4e5f54494d45000000000000000060448201526064016200023d565b620002b4308362000312565b601455506200072f915050565b600580546001600160a01b038381166001600160a01b0319831681179093556040519116919082907f8be0079c531659141344cd1fd0a4f28419497f9722a3daafe3b4186f6b6457e0905f90a35050565b6001600160a01b0382166200033d5760405163ec442f0560e01b81525f60048201526024016200023d565b6200034a5f83836200034e565b5050565b6001600160a01b0383166200037c578060025f82825462000370919062000709565b90915550620003ee9050565b6001600160a01b0383165f9081526020819052604090205481811015620003d05760405163391434e360e21b81526001600160a01b038516600482015260248101829052604481018390526064016200023d565b6001600160a01b0384165f9081526020819052604090209082900390555b6001600160a01b0382166200040c576002805482900390556200042a565b6001600160a01b0382165f9081526020819052604090208054820190555b816001600160a01b0316836001600160a01b03167fddf252ad1be2c89b69c2b068fc378daa952ba7f163c4a11628f55a4df523b3ef836040516200047091815260200190565b60405180910390a3505050565b634e487b7160e01b5f52604160045260245ffd5b5f82601f830112620004a1575f80fd5b81516001600160401b0380821115620004be57620004be6200047d565b604051601f8301601f19908116603f01168101908282118183101715620004e957620004e96200047d565b816040528381526020925086602085880101111562000506575f80fd5b5f91505b838210156200052957858201830151818301840152908201906200050a565b5f602085830101528094505050505092915050565b5f805f806080858703121562000552575f80fd5b84516001600160401b038082111562000569575f80fd5b620005778883890162000491565b955060208701519150808211156200058d575f80fd5b506200059c8782880162000491565b604087015160609097015195989097509350505050565b600181811c90821680620005c857607f821691505b602082108103620005e757634e487b7160e01b5f52602260045260245ffd5b50919050565b601f8211156200063857805f5260205f20601f840160051c81016020851015620006145750805b601f840160051c820191505b8181101562000635575f815560010162000620565b50505b505050565b81516001600160401b038111156200065957620006596200047d565b62000671816200066a8454620005b3565b84620005ed565b602080601f831160018114620006a7575f84156200068f5750858301515b5f19600386901b1c1916600185901b17855562000701565b5f85815260208120601f198616915b82811015620006d757888601518255948401946001909101908401620006b6565b5085821015620006f557878501515f19600388901b60f8161c191681555b505060018460011b0185555b505050505050565b808201808211156200072957634e487b7160e01b5f52601160045260245ffd5b92915050565b612bfc806200073d5f395ff3fe60806040526004361061018e575f3560e01c80635f1b03e0116100dc57806396b5a75511610087578063b099603911610062578063b0996039146104bc578063b6785710146104db578063dd62ed3e146104f0578063f2fde38b14610534575f80fd5b806396b5a7551461046b578063a61c80771461048a578063a9059cbb1461049d575f80fd5b8063715018a6116100b7578063715018a61461041c5780638da5cb5b1461043057806395d89b4114610457575f80fd5b80635f1b03e0146103aa5780636198e339146103c957806370a08231146103e8575f80fd5b8063313ce5671161013c578063571a26a011610117578063571a26a0146102c35780635a4ed8f1146103765780635a7278b61461038b575f80fd5b8063313ce5671461025e57806345643a5a146102795780634c1039b414610298575f80fd5b806318160ddd1161016c57806318160ddd1461020a578063199de1e21461021e57806323b872dd1461023f575f80fd5b806302890ab91461019257806306fdde03146101ba578063095ea7b3146101db575b5f80fd5b34801561019d575f80fd5b506101a760155481565b6040519081526020015b60405180910390f35b3480156101c5575f80fd5b506101ce610553565b6040516101b19190612842565b3480156101e6575f80fd5b506101fa6101f5366004612868565b6105e3565b60405190151581526020016101b1565b348015610215575f80fd5b506002546101a7565b348015610229575f80fd5b5061023d610238366004612892565b6105fc565b005b34801561024a575f80fd5b506101fa6102593660046128a9565b6107c4565b348015610269575f80fd5b50604051601281526020016101b1565b348015610284575f80fd5b5061023d610293366004612892565b6107e7565b3480156102a3575f80fd5b506101a76102b2366004612892565b60176020525f908152604090205481565b3480156102ce575f80fd5b5061032f6102dd366004612892565b60166020525f9081526040902080546001820154600283015460038401546004850154600586015460068701546007909701546001600160a01b03909616969495939492939192909160ff9091169088565b604080516001600160a01b0390991689526020890197909752958701949094526060860192909252608085015260a0840152151560c083015260e0820152610100016101b1565b348015610381575f80fd5b506101a760145481565b348015610396575f80fd5b506101a76103a53660046128e7565b610a36565b3480156103b5575f80fd5b5061023d6103c4366004612960565b610c55565b3480156103d4575f80fd5b5061023d6103e3366004612892565b610cab565b3480156103f3575f80fd5b506101a7610402366004612980565b6001600160a01b03165f9081526020819052604090205490565b348015610427575f80fd5b5061023d610edd565b34801561043b575f80fd5b506005546040516001600160a01b0390911681526020016101b1565b348015610462575f80fd5b506101ce610ef0565b348015610476575f80fd5b5061023d610485366004612892565b610eff565b61023d610498366004612892565b611072565b3480156104a8575f80fd5b506101fa6104b7366004612868565b6112a5565b3480156104c7575f80fd5b5061023d6104d636600461299b565b6112b2565b3480156104e6575f80fd5b506101a760135481565b3480156104fb575f80fd5b506101a761050a3660046129c4565b6001600160a01b039182165f90815260016020908152604080832093909416825291909152205490565b34801561053f575f80fd5b5061023d61054e366004612980565b611350565b606060038054610562906129fb565b80601f016020809104026020016040519081016040528092919081815260200182805461058e906129fb565b80156105d95780601f106105b0576101008083540402835291602001916105d9565b820191905f5260205f20905b8154815290600101906020018083116105bc57829003601f168201915b5050505050905090565b5f336105f081858561138a565b60019150505b92915050565b60145442116106525760405162461bcd60e51b815260206004820152601260248201527f554e46494e49534845445f41554354494f4e000000000000000000000000000060448201526064015b60405180910390fd5b601354601554106106a55760405162461bcd60e51b815260206004820152601060248201527f50524f434545445f414c4c5f44415441000000000000000000000000000000006044820152606401610649565b5f811180156106b75750601354601554105b156107c1576015545f9081526016602052604090206006015460ff161561079a576040805160028082526060820183525f92602083019080368337019050506015545f90815260166020526040902060020154909150815f8151811061071f5761071f612a33565b60200260200101818152505061074860165f60155481526020019081526020015f206003015490565b8160018151811061075b5761075b612a33565b60209081029190910101525f6107858263b099603960e01b8361077f426064612a5b565b5f61139c565b6015545f918252601760205260409091205550505b60158054905f6107a983612a6e565b919050555080806107b990612a86565b9150506106a5565b50565b5f336107d18582856114c6565b6107dc858585611542565b506001949350505050565b6107ef61159f565b305f9081526020819052604081205411801561080a57505f81115b8015610817575060115415155b15610993575f61082760116115c9565b90505b5f818152601860205260409020541561098257815f0361084a5750610a2c565b5f818152601860205260408120805461086590600190612a9b565b8154811061087557610875612a33565b905f5260205f200154905060185f8381526020019081526020015f208054806108a0576108a0612aae565b600190038181905f5260205f20015f905590555f6108eb6108d5306001600160a01b03165f9081526020819052604090205490565b5f84815260166020526040902060040154611607565b5f838152601660205260409020600501549091506109099082612ac2565b5f8381526016602052604081206007018054909190610929908490612a9b565b90915550505f828152601660205260409020546109519030906001600160a01b031683611542565b305f908152602081905260409020545f0361096e57505050610a2c565b8361097881612a86565b945050505061082a565b61098d601182611619565b506107ef565b305f908152602081905260408120541180156109af5750601154155b15610a2c57610a2c30306001600160a01b0316638da5cb5b6040518163ffffffff1660e01b8152600401602060405180830381865afa1580156109f4573d5f803e3d5ffd5b505050506040513d601f19601f82011682018060405250810190610a189190612ad9565b305f90815260208190526040902054611542565b6107c16001601055565b5f6014544210610a5957604051635d479c3d60e01b815260040160405180910390fd5b5f610a998685858080601f0160208091040260200160405190810160405280939291908181526020018383808284375f9201919091525061183492505050565b90505f610adb8686868080601f0160208091040260200160405190810160405280939291908181526020018383808284375f9201919091525061183492505050565b9050610ae682611841565b610aef81611841565b5f610afa838361184b565b9050610b0581611841565b6040805160018082528183019092525f916020808301908036833701905050905081815f81518110610b3957610b39612a33565b60209081029190910101525f610b5d826302f8d81f60e51b8361077f426064612a5b565b601380545f838152601760209081526040808320849055805161010081018252338152428184019081528183018d8152606083018d81526080840187815260a0850188815260c0860189815260e087018a81529a8a5260169098529588209451855473ffffffffffffffffffffffffffffffffffffffff19166001600160a01b03909116178555925160018501559051600284015551600383015551600482015590516005820155905160068201805460ff191691151591909117905591516007909201919091558154929350610c3383612a6e565b91905055506001601354610c479190612a9b565b9a9950505050505050505050565b7f93ab6e17f2c461cce6ea5d4ec117e51dda77a64affc2b2c05f8cd440def0e700546001600160a01b03163314610c8a575f80fd5b5f918252601760209081526040808420548452601690915290912060070155565b610cb361159f565b305f9081526020819052604090205415610d0f5760405162461bcd60e51b815260206004820152601960248201527f5354494c4c5f544f4b454e5f554e4449535452494255544544000000000000006044820152606401610649565b5f818152601660205260409020546001600160a01b03163314610d635760405162461bcd60e51b815260206004820152600c60248201526b24a72b20a624a22faaa9a2a960a11b6044820152606401610649565b5f8181526016602052604090206006015460ff16610dc35760405162461bcd60e51b815260206004820152601560248201527f4e4f545f56414c4944415445445f41554354494f4e00000000000000000000006044820152606401610649565b5f81815260166020526040902060070154610e205760405162461bcd60e51b815260206004820152600d60248201527f4e4f5f4d4f52455f544f4b454e000000000000000000000000000000000000006044820152606401610649565b5f818152601660205260408082206007018054908390559051909190339083905b5f6040518083038185875af1925050503d805f8114610e7b576040519150601f19603f3d011682016040523d82523d5f602084013e610e80565b606091505b5050905080610ed15760405162461bcd60e51b815260206004820152600d60248201527f526566756e64206661696c6564000000000000000000000000000000000000006044820152606401610649565b50506107c16001601055565b610ee5611879565b610eee5f6118a6565b565b606060048054610562906129fb565b6014544210610f2157604051635d479c3d60e01b815260040160405180910390fd5b610f2961159f565b6013548110610f7a5760405162461bcd60e51b815260206004820152601260248201527f494e56414c49445f41554354494f4e5f494400000000000000000000000000006044820152606401610649565b5f818152601660205260409020546001600160a01b03163314610fce5760405162461bcd60e51b815260206004820152600c60248201526b24a72b20a624a22faaa9a2a960a11b6044820152606401610649565b5f8181526016602052604090206006015460ff1661102e5760405162461bcd60e51b815260206004820152601560248201527f4e4f545f56414c4944415445445f41554354494f4e00000000000000000000006044820152606401610649565b5f81815260166020526040902060078101546006909101805460ff191690558015611067575f336001600160a01b031682604051610e41565b506107c16001601055565b601454421061109457604051635d479c3d60e01b815260040160405180910390fd5b61109c61159f565b60135481106110ed5760405162461bcd60e51b815260206004820152601260248201527f494e56414c49445f41554354494f4e5f494400000000000000000000000000006044820152606401610649565b5f818152601660205260409020546001600160a01b031633146111415760405162461bcd60e51b815260206004820152600c60248201526b24a72b20a624a22faaa9a2a960a11b6044820152606401610649565b5f8181526016602052604090206006015460ff16156111a25760405162461bcd60e51b815260206004820152601160248201527f414c52454144595f56414c4944415445440000000000000000000000000000006044820152606401610649565b5f818152601660205260409020600701546111ff5760405162461bcd60e51b815260206004820152600f60248201527f494e56414c49445f41554354494f4e00000000000000000000000000000000006044820152606401610649565b5f8181526016602052604090206007015434101561125f5760405162461bcd60e51b815260206004820152601060248201527f4e4f545f454e4f5547485f46554e4453000000000000000000000000000000006044820152606401610649565b5f81815260166020526040812060068101805460ff19166001179055600701546112899034612a9b565b90508015611067575f336001600160a01b031682604051610e41565b5f336105f0818585611542565b7f93ab6e17f2c461cce6ea5d4ec117e51dda77a64affc2b2c05f8cd440def0e700546001600160a01b031633146112e7575f80fd5b5f838152601760209081526040808320548084526016835281842060048101879055600501859055848452601890925282205490910361132c5761132c601183611904565b5f918252601860209081526040832080546001810182559084529220909101555050565b611358611879565b6001600160a01b03811661138157604051631e4fbdf760e01b81525f6004820152602401610649565b6107c1816118a6565b6113978383836001611a0f565b505050565b7fed8d60e34876f751cc8b014c560745351147d9de11b9347c854e881b128ea600805460405163155f840160e21b81525f92916001600160a01b03169063557e1004906113ed908a90600401612b2e565b5f604051808303815f87803b158015611404575f80fd5b505af1158015611416573d5f803e3d5ffd5b505050505f6114427f93ab6e17f2c461cce6ea5d4ec117e51dda77a64affc2b2c05f8cd440def0e70090565b8054604051634c0d927760e01b81529192506001600160a01b031690634c0d92779061147a908b908b908b908b908b90600401612b40565b6020604051808303815f875af1158015611496573d5f803e3d5ffd5b505050506040513d601f19601f820116820180604052508101906114ba9190612b9a565b98975050505050505050565b6001600160a01b038381165f908152600160209081526040808320938616835292905220545f1981101561153c578181101561152e57604051637dc7a0d960e11b81526001600160a01b03841660048201526024810182905260448101839052606401610649565b61153c84848484035f611a0f565b50505050565b6001600160a01b03831661156b57604051634b637e8f60e11b81525f6004820152602401610649565b6001600160a01b0382166115945760405163ec442f0560e01b81525f6004820152602401610649565b611397838383611ae1565b6002601054036115c257604051633ee5aeb560e01b815260040160405180910390fd5b6002601055565b80548015611602575b5f81815260018301602052604090206002015415611602575f9081526001820160205260409020600201546115d2565b919050565b5f8282188284100282185b9392505050565b80611622575f80fd5b61162c8282611c07565b611634575f80fd5b5f81815260018084016020526040822001548190158061166457505f838152600185016020526040902060020154155b156116705750816116b5565b505f8281526001840160205260409020600201545b5f818152600180860160205260409091200154156116b5575f908152600180850160205260409091200154611685565b5f818152600180860160205260409091200154156116e7575f81815260018086016020526040909120015491506116fd565b5f81815260018501602052604090206002015491505b5f8181526001850160205260408082205484835291208190558015611769575f818152600180870160205260409091200154820361174f575f818152600180870160205260409091200183905561176d565b5f818152600186016020526040902060020183905561176d565b8285555b5f82815260018601602052604090206003015460ff16158483146117f557611796868487611c34565b5f8581526001878101602052604080832080830154878552828520938401819055845281842087905560028082015490840181905584529083208690556003908101549286905201805460ff191660ff90921615159190911790559193915b8015611805576118058685611ca6565b50505f90815260019384016020526040812081815593840181905560028401555050600301805460ff19169055565b5f611612838360086120a7565b6107c181306121cb565b5f8261185d5761185a5f612254565b92505b8161186e5761186b5f612254565b91505b61161283835f612260565b6005546001600160a01b03163314610eee5760405163118cdaa760e01b8152336004820152602401610649565b600580546001600160a01b0383811673ffffffffffffffffffffffffffffffffffffffff19831681179093556040519116919082907f8be0079c531659141344cd1fd0a4f28419497f9722a3daafe3b4186f6b6457e0905f90a35050565b8061190d575f80fd5b6119178282611c07565b15611920575f80fd5b81545f905b8015611966578091508083101561194e575f908152600180850160205260409091200154611925565b5f908152600184016020526040902060020154611925565b604080516080810182528381525f60208083018281528385018381526001606086018181528a86528b82019094529590932093518455519383019390935551600282015590516003909101805460ff1916911515919091179055816119cd57828455611a05565b818310156119ef575f8281526001808601602052604090912001839055611a05565b5f82815260018501602052604090206002018390555b61153c8484612340565b6001600160a01b038416611a385760405163e602df0560e01b81525f6004820152602401610649565b6001600160a01b038316611a6157604051634a1406b160e11b81525f6004820152602401610649565b6001600160a01b038085165f908152600160209081526040808320938716835292905220829055801561153c57826001600160a01b0316846001600160a01b03167f8c5be1e5ebec7d5bd14f71427d1e84f3dd0314c0f7b2291e5b200ac8c7c3b92584604051611ad391815260200190565b60405180910390a350505050565b6001600160a01b038316611b0b578060025f828254611b009190612a5b565b90915550611b7b9050565b6001600160a01b0383165f9081526020819052604090205481811015611b5d5760405163391434e360e21b81526001600160a01b03851660048201526024810182905260448101839052606401610649565b6001600160a01b0384165f9081526020819052604090209082900390555b6001600160a01b038216611b9757600280548290039055611bb5565b6001600160a01b0382165f9081526020819052604090208054820190555b816001600160a01b0316836001600160a01b03167fddf252ad1be2c89b69c2b068fc378daa952ba7f163c4a11628f55a4df523b3ef83604051611bfa91815260200190565b60405180910390a3505050565b5f8115801590611612575082548214806116125750505f9081526001919091016020526040902054151590565b5f81815260018401602052604080822054848352912081905580611c5a5782845561153c565b5f8181526001808601602052604090912001548203611c8d575f818152600180860160205260409091200183905561153c565b5f90815260019390930160205250604090912060020155565b5f5b82548214801590611ccc57505f82815260018401602052604090206003015460ff16155b15612089575f8281526001808501602052604080832054808452922001548303611ebc575f8181526001850160205260408082206002015480835291206003015490925060ff1615611d6b575f828152600180860160205260408083206003908101805460ff19908116909155858552919093209092018054909216179055611d55848261259c565b5f81815260018501602052604090206002015491505b5f8281526001808601602052604080832090910154825290206003015460ff16158015611db457505f82815260018501602052604080822060020154825290206003015460ff16155b15611de0575f82815260018581016020526040909120600301805460ff19169091179055915081612083565b5f82815260018501602052604080822060020154825290206003015460ff16611e5a575f828152600180860160205260408083208083015484529083206003908101805460ff1990811690915593869052018054909216179055611e44848361266c565b5f81815260018501602052604090206002015491505b5f81815260018501602052604080822060039081018054868552838520808401805460ff909316151560ff199384161790558254821690925560029091015484529190922090910180549091169055611eb3848261259c565b83549250612083565b5f818152600180860160205260408083209091015480835291206003015490925060ff1615611f38575f828152600180860160205260408083206003908101805460ff19908116909155858552919093209092018054909216179055611f22848261266c565b5f81815260018086016020526040909120015491505b5f82815260018501602052604080822060020154825290206003015460ff16158015611f8157505f8281526001808601602052604080832090910154825290206003015460ff16155b15611fad575f82815260018581016020526040909120600301805460ff19169091179055915081612083565b5f8281526001808601602052604080832090910154825290206003015460ff16612029575f82815260018086016020526040808320600281015484529083206003908101805460ff1990811690915593869052018054909216179055612013848361259c565b5f81815260018086016020526040909120015491505b5f8181526001808601602052604080832060039081018054878652838620808401805460ff909316151560ff1993841617905582548216909255930154845292209091018054909116905561207e848261266c565b835492505b50611ca8565b505f908152600190910160205260409020600301805460ff19169055565b7fed8d60e34876f751cc8b014c560745351147d9de11b9347c854e881b128ea601546040516302e817ff60e41b81525f917fed8d60e34876f751cc8b014c560745351147d9de11b9347c854e881b128ea600916001600160a01b0390911690632e817ff0906121249088903390899060f88a901b90600401612bb1565b6020604051808303815f875af1158015612140573d5f803e3d5ffd5b505050506040513d601f19601f820116820180604052508101906121649190612b9a565b81546040516346ce4e4960e11b8152600481018390523360248201529193506001600160a01b031690638d9c9c92906044015f604051808303815f87803b1580156121ad575f80fd5b505af11580156121bf573d5f803e3d5ffd5b50505050509392505050565b5f7fed8d60e34876f751cc8b014c560745351147d9de11b9347c854e881b128ea6008054604051631974142760e21b8152600481018690526001600160a01b0385811660248301529293509116906365d0509c906044015f604051808303815f87803b158015612239575f80fd5b505af115801561224b573d5f803e3d5ffd5b50505050505050565b5f6105f6826008612739565b5f8082156122735750600160f81b612276565b505f5b5f7fed8d60e34876f751cc8b014c560745351147d9de11b9347c854e881b128ea600600181015460405163816d57d360e01b815260048101899052602481018890527fff00000000000000000000000000000000000000000000000000000000000000851660448201529192506001600160a01b03169063816d57d3906064016020604051808303815f875af1158015612312573d5f803e3d5ffd5b505050506040513d601f19601f820116820180604052508101906123369190612b9a565b9695505050505050565b5f5b8254821480159061236b57505f82815260018401602052604080822054825290206003015460ff165b1561257b575f8281526001808501602052604080832054808452818420548452922001548103612487575f8181526001850160205260408082205482528082206002015480835291206003015490925060ff1615612410575f818152600180860160205260408083206003808201805460ff19908116909155878652838620820180548216905582548652928520018054909216909217905590829052549250612575565b5f818152600185016020526040902060020154830361243657809250612436848461259c565b505f82815260018085016020526040808320548084528184206003808201805460ff1990811690915582548752938620018054909316909317909155918290525461248290859061266c565b612575565b5f818152600180860160205260408083205483528083209091015480835291206003015490925060ff1615612503575f818152600180860160205260408083206003808201805460ff19908116909155878652838620820180548216905582548652928520018054909216909217905590829052549250612575565b5f818152600180860160205260409091200154830361252957809250612529848461266c565b505f82815260018085016020526040808320548084528184206003808201805460ff1990811690915582548752938620018054909316909317909155918290525461257590859061259c565b50612342565b505080545f908152600190910160205260409020600301805460ff19169055565b5f818152600180840160205260408083206002810180549154828652928520909301549385905291839055909180156125e2575f81815260018601602052604090208490555b5f8381526001860160205260409020829055816126015782855561264a565b5f8281526001808701602052604090912001548403612634575f828152600180870160205260409091200183905561264a565b5f82815260018601602052604090206002018390555b50505f8181526001938401602052604080822090940183905591825291902055565b5f81815260018084016020526040808320918201805492548385529184206002015493859052839055909180156126b0575f81815260018601602052604090208490555b5f8381526001860160205260409020829055816126cf57828555612718565b5f8281526001860160205260409020600201548403612702575f8281526001860160205260409020600201839055612718565b5f82815260018087016020526040909120018390555b50505f81815260019093016020526040808420600201839055918352912055565b5f807fed8d60e34876f751cc8b014c560745351147d9de11b9347c854e881b128ea6006001810154604051631ce2e8d760e31b8152600481018790527fff0000000000000000000000000000000000000000000000000000000000000060f887901b1660248201529192506001600160a01b03169063e71746b8906044016020604051808303815f875af11580156127d3573d5f803e3d5ffd5b505050506040513d601f19601f820116820180604052508101906127f79190612b9a565b949350505050565b5f81518084525f5b8181101561282357602081850181015186830182015201612807565b505f602082860101526020601f19601f83011685010191505092915050565b602081525f61161260208301846127ff565b6001600160a01b03811681146107c1575f80fd5b5f8060408385031215612879575f80fd5b823561288481612854565b946020939093013593505050565b5f602082840312156128a2575f80fd5b5035919050565b5f805f606084860312156128bb575f80fd5b83356128c681612854565b925060208401356128d681612854565b929592945050506040919091013590565b5f805f80606085870312156128fa575f80fd5b8435935060208501359250604085013567ffffffffffffffff8082111561291f575f80fd5b818701915087601f830112612932575f80fd5b813581811115612940575f80fd5b886020828501011115612951575f80fd5b95989497505060200194505050565b5f8060408385031215612971575f80fd5b50508035926020909101359150565b5f60208284031215612990575f80fd5b813561161281612854565b5f805f606084860312156129ad575f80fd5b505081359360208301359350604090920135919050565b5f80604083850312156129d5575f80fd5b82356129e081612854565b915060208301356129f081612854565b809150509250929050565b600181811c90821680612a0f57607f821691505b602082108103612a2d57634e487b7160e01b5f52602260045260245ffd5b50919050565b634e487b7160e01b5f52603260045260245ffd5b634e487b7160e01b5f52601160045260245ffd5b808201808211156105f6576105f6612a47565b5f60018201612a7f57612a7f612a47565b5060010190565b5f81612a9457612a94612a47565b505f190190565b818103818111156105f6576105f6612a47565b634e487b7160e01b5f52603160045260245ffd5b80820281158282048414176105f6576105f6612a47565b5f60208284031215612ae9575f80fd5b815161161281612854565b5f815180845260208085019450602084015f5b83811015612b2357815187529582019590820190600101612b07565b509495945050505050565b602081525f6116126020830184612af4565b60a081525f612b5260a0830188612af4565b7fffffffff0000000000000000000000000000000000000000000000000000000096909616602083015250604081019390935260608301919091521515608090910152919050565b5f60208284031215612baa575f80fd5b5051919050565b8481526001600160a01b0384166020820152608060408201525f612bd860808301856127ff565b905060ff60f81b831660608301529594505050505056fea164736f6c6343000818000a",
  "linkReferences": {},
  "deployedLinkReferences": {}
}